:020000040800F2
:10000000A0C800206D9C0408959D0408999D0408D3
:100010009D9D0408A19D0408A59D04080000000002
:1000200000000000000000000000000061E1030883
:10003000919404080000000009E1030839E0030876
:10004000A99D0408AD9D0408B19D0408B59D040850
:10005000B99D040893940408BD9D0408C19D04083B
:10006000C59D0408C99D0408CD9D0408D19D0408C0
:10007000D59D0408D99D0408DD9D0408E19D040870
:10008000E59D0408E99D0408ED9D0408F19D040820
:10009000F59D0408F99D0408FD9D0408019E0408CF
:1000A000059E040895940408099E04080D9E040802
:1000B000119E0408159E0408199E04081D9E04083C
:1000C000219E0408259E0408299E04082D9E0408EC
:1000D000319E0408359E0408399E04083D9E04089C
:1000E000419E0408459E0408499E04084D9E04084C
:1000F000519E0408559E0408599E04085D9E0408FC
:10010000619E0408659E0408699E04086D9E0408AB
:10011000719E0408759E0408799E04087D9E04085B
:10012000819E0408859E0408899E04088D9E04080B
:10013000919E0408959E0408999E04089D9E0408BB
:10014000A19E0408A59E0408A99E0408AD9E04086B
:10015000B19E0408B59E0408B99E0408BD9E04081B
:10016000C19E0408C59E0408C99E0408CD9E0408CB
:10017000D19E0408D59E0408D99E04080000000002
:10018000DD9E0408E19E0408E59E0408E99E04083B
:10019000ED9E0408F19E0408F59E0408F99E0408EB
:1001A0009B940408FD9E0408A1940408000000002C
:1001B000000000000000000000000000000000003F
:1001C000000000000000000000000000000000002F
:1001D0000000000000000000C8980004C89C003423
:1001E000C8A0085DC8A00079C8A00082C8A000828D
:1001F000C8A00082C8A00086C8A00082C8A0008253
:10020000C8A00086C8A00082C8A00082C8A000863E
:10021000C8A00082C8A00082C8A00086C8A0008232
:10022000C8A00082C8A00086C8A00082C8A0008222
:10023000C8A00086C8A00082C8A00082C8A000860E
:10024000C8A00082C8A00082C8A00086C8A0008202
:10025000C8A00082C8A00086C8A00082C8A00082F2
:10026000C8A00086C8A00082C8A00082C8A00086DE
:10027000C8A00082C8A00082C8A00086C8A00082D2
:10028000C8A00082C8A00086C8A00082C8A00082C2
:10029000C8A00086C8A00082C8A00082C8A00086AE
:1002A000C8A00082C8A00082C8A00086C8A00082A2
:1002B000C8A00082C8A00086C8A00082C8A0008292
:1002C000C8A00086C8A00082C8A00082C8A000867E
:1002D000C8A00082C8A00082C8A00086C8A0008272
:1002E000C8A00082C8A00086C8A00082C8A0008262
:1002F000C8A00086C8A00082C8A00082C8A000864E
:10030000C8A00082C8A00082C8A00086C8A0008241
:10031000C8A00082C8A00086C8A00082C8A0008231
:10032000C8A00086C8A00082C8A00082C8A000861D
:10033000C8A00082C8A00082C8A00086C8A0008211
:10034000C8A00082C8A00086C8A00082C8A0008201
:10035000C8A00086C8A00082C8A00082C8A00086ED
:10036000C8A00082C8A00082C8A00086C8A00082E1
:10037000C8A00879C8A0085DC8A00034C8980004C7
:10038000000000000000000000000000000000006D
:10039000000000000000000000000000000000005D
:1003A000000000000000000000000000000000004D
:1003B000000000000000000000000000000000003D
:1003C000000000000000000000000000000000002D
:1003D000C8A00041C8A008A6C8A000F3C8A008FF94
:1003E000C8A008FFC8A000FFC8A008FFC8A008FF59
:1003F000C8A008FFC8A008FFC8A008FFC8A008FF41
:10040000C8A008FFC8A008FFC8A008FFC8A008FF30
:10041000C8A008FFC8A008FFC8A008FFC8A008FF20
:10042000C8A008FFC8A008FFC8A008FFC8A008FF10
:10043000C8A008FFC8A008FFC8A008FFC8A008FF00
:10044000C8A008FFC8A008FFC8A008FFC8A008FFF0
:10045000C8A008FFC8A008FFC8A008FFC8A008FFE0
:10046000C8A008FFC8A008FFC8A008FFC8A008FFD0
:10047000C8A008FFC8A008FFC8A008FFC8A008FFC0
:10048000C8A008FFC8A008FFC8A008FFC8A008FFB0
:10049000C8A008FFC8A008FFC8A008FFC8A008FFA0
:1004A000C8A008FFC8A008FFC8A008FFC8A008FF90
:1004B000C8A008FFC8A008FFC8A008FFC8A008FF80
:1004C000C8A008FFC8A008FFC8A008FFC8A008FF70
:1004D000C8A008FFC8A008FFC8A008FFC8A008FF60
:1004E000C8A008FFC8A008FFC8A008FFC8A008FF50
:1004F000C8A008FFC8A008FFC8A008FFC8A008FF40
:10050000C8A008FFC8A008FFC8A008FFC8A008FF2F
:10051000C8A008FFC8A008FFC8A008FFC8A008FF1F
:10052000C8A008FFC8A008FFC8A008FFC8A008FF0F
:10053000C8A008FFC8A008FFC8A008FFC8A008FFFF
:10054000C8A008FFC8A008FFC8A008FFC8A008FFEF
:10055000C8A008FFC8A008FFC8A008FFC8A008FFDF
:10056000C8A008FFC8A008FFC8A008FFC8A000FFD7
:10057000C8A000FFC8A008FFC8A000FFC8A000EFE7
:10058000C8A008A6C8A000410000000000000000AC
:10059000000000000000000000000000000000005B
:1005A000000000000000000000000000000000004B
:1005B000000000000000000000000000000000003B
:1005C0000000000000000000C8A00034C8A000C760
:1005D000C8A008FFC8A000FFC8A000FFC8A408FF6B
:1005E000C8A000FFC8A008FFC8A000FFC8A008FF5F
:1005F000C8A000FFC8A000FFC8A008FFC8A000FF57
:10060000C8A000FFC8A008FFC8A000FFC8A000FF46
:10061000C8A008FFC8A000FFC8A000FFC8A008FF2E
:10062000C8A000FFC8A000FFC8A008FFC8A000FF26
:10063000C8A000FFC8A008FFC8A000FFC8A000FF16
:10064000C8A008FFC8A000FFC8A000FFC8A008FFFE
:10065000C8A000FFC8A000FFC8A008FFC8A000FFF6
:10066000C8A000FFC8A008FFC8A000FFC8A000FFE6
:10067000C8A008FFC8A000FFC8A000FFC8A008FFCE
:10068000C8A000FFC8A000FFC8A008FFC8A000FFC6
:10069000C8A000FFC8A008FFC8A000FFC8A000FFB6
:1006A000C8A008FFC8A000FFC8A000FFC8A008FF9E
:1006B000C8A000FFC8A000FFC8A008FFC8A000FF96
:1006C000C8A000FFC8A008FFC8A000FFC8A000FF86
:1006D000C8A008FFC8A000FFC8A000FFC8A008FF6E
:1006E000C8A000FFC8A000FFC8A008FFC8A000FF66
:1006F000C8A000FFC8A008FFC8A000FFC8A000FF56
:10070000C8A008FFC8A000FFC8A000FFC8A008FF3D
:10071000C8A000FFC8A000FFC8A008FFC8A000FF35
:10072000C8A000FFC8A008FFC8A000FFC8A000FF25
:10073000C8A008FFC8A000FFC8A000FFC8A008FF0D
:10074000C8A000FFC8A000FFC8A008FFC8A000FF05
:10075000C8A000FFC8A008FFC8A000FFC8A000FFF5
:10076000C8A008FFC8A000FFC8A008FFC8A008FFD5
:10077000C8A400FFC8A008FFC8A008FFC8A000FFC9
:10078000C8A008FFC8A008FFC8A000C3D0A40834B0
:100790000000000000000000000000000000000059
:1007A0000000000000000000000000000000000049
:1007B0000000000000000000000000000000000039
:1007C000F8FC0000C8A00082C8A008FBC8A008FF71
:1007D000C8A000FFC8A008FFC8A408FFC8A000FF69
:1007E000C8A000FFC8A408FFC8A400FFC8A000FF5D
:1007F000C8A408FFC8A400FFC8A000FFC8A408FF41
:10080000C8A000FFC8A400FFC8A008FFC8A400FF3C
:10081000C8A000FFC8A408FFC8A000FFC8A400FF2C
:10082000C8A008FFC8A400FFC8A000FFC8A408FF14
:10083000C8A000FFC8A400FFC8A008FFC8A400FF0C
:10084000C8A000FFC8A408FFC8A000FFC8A400FFFC
:10085000C8A008FFC8A400FFC8A000FFC8A408FFE4
:10086000C8A000FFC8A400FFC8A008FFC8A400FFDC
:10087000C8A000FFC8A408FFC8A000FFC8A400FFCC
:10088000C8A008FFC8A400FFC8A000FFC8A408FFB4
:10089000C8A000FFC8A400FFC8A008FFC8A400FFAC
:1008A000C8A000FFC8A408FFC8A000FFC8A400FF9C
:1008B000C8A008FFC8A400FFC8A000FFC8A408FF84
:1008C000C8A000FFC8A400FFC8A008FFC8A400FF7C
:1008D000C8A000FFC8A408FFC8A000FFC8A400FF6C
:1008E000C8A008FFC8A400FFC8A000FFC8A408FF54
:1008F000C8A000FFC8A400FFC8A008FFC8A400FF4C
:10090000C8A000FFC8A408FFC8A000FFC8A400FF3B
:10091000C8A008FFC8A400FFC8A000FFC8A408FF23
:10092000C8A000FFC8A400FFC8A008FFC8A400FF1B
:10093000C8A000FFC8A408FFC8A000FFC8A400FF0B
:10094000C8A008FFC8A400FFC8A000FFC8A408FFF3
:10095000C8A000FFC8A400FFC8A008FFC8A400FFEB
:10096000C8A000FFC8A400FFC8A000FFC8A008FFDF
:10097000C8A400FFC8A000FFC8A008FFC8A400FFCB
:10098000C8A000FFC8A008FFC8A000FFC8A000FBC7
:10099000C8A0087DF88000000000000000000000F2
:1009A0000000000000000000000000000000000047
:1009B000000000000000000000000000B8900008E7
:1009C000C8A000AEC8A008FFC8A008FFC8A000FFCC
:1009D000C8A000FFC8A408FFC8A008FFC8A000FF67
:1009E000C8A008FFC8A008FFC8A000FFC8A008FF53
:1009F000C8A008FFC8A008FFC8A000FFC8A008FF43
:100A0000C8A008FFC8A000FFC8A408FFC8A008FF2E
:100A1000C8A000FFC8A008FFC8A408FFC8A000FF26
:100A2000C8A008FFC8A008FFC8A400FFC8A008FF0E
:100A3000C8A008FFC8A000FFC8A408FFC8A008FFFE
:100A4000C8A000FFC8A008FFC8A408FFC8A000FFF6
:100A5000C8A008FFC8A008FFC8A400FFC8A008FFDE
:100A6000C8A008FFC8A000FFC8A408FFC8A008FFCE
:100A7000C8A000FFC8A008FFC8A408FFC8A000FFC6
:100A8000C8A008FFC8A008FFC8A400FFC8A008FFAE
:100A9000C8A008FFC8A000FFC8A408FFC8A008FF9E
:100AA000C8A000FFC8A008FFC8A408FFC8A000FF96
:100AB000C8A008FFC8A008FFC8A400FFC8A008FF7E
:100AC000C8A008FFC8A000FFC8A408FFC8A008FF6E
:100AD000C8A000FFC8A008FFC8A408FFC8A000FF66
:100AE000C8A008FFC8A008FFC8A400FFC8A008FF4E
:100AF000C8A008FFC8A000FFC8A408FFC8A008FF3E
:100B0000C8A000FFC8A008FFC8A408FFC8A000FF35
:100B1000C8A008FFC8A008FFC8A400FFC8A008FF1D
:100B2000C8A008FFC8A000FFC8A408FFC8A008FF0D
:100B3000C8A000FFC8A008FFC8A408FFC8A000FF05
:100B4000C8A008FFC8A008FFC8A400FFC8A008FFED
:100B5000C8A008FFC8A000FFC8A408FFC8A008FFDD
:100B6000C8A008FFC8A008FFC8A400FFC8A008FFCD
:100B7000D0A008FFC8A000FFC8A408FFD0A008FFAD
:100B8000C8A000FFC8A408FFC8A000FFC8A008FFB5
:100B9000C8A000FFC8A000AAA8A800080000000084
:100BA0000000000000000000000000000000000045
:100BB0000000000000000000F8800000C8A000AEA7
:100BC000C8A008FFC8A000FFC8A000FFC8A408FF75
:100BD000C8A000FFC8A000FFD0A008FFC8A400FF65
:100BE000C8A008FFD0A000FFC8A400FFC8A008FF4D
:100BF000D0A000FFC8A000FFC8A408FFD0A000FF3D
:100C0000C8A008FFC8A000FFD0A008FFC8A000FF30
:100C1000C8A008FFD0A000FFC8A008FFC8A000FF20
:100C2000D0A008FFC8A000FFC8A008FFD0A000FF08
:100C3000C8A008FFC8A000FFD0A008FFC8A000FF00
:100C4000C8A008FFD0A000FFC8A008FFC8A000FFF0
:100C5000D0A008FFC8A000FFC8A008FFD0A000FFD8
:100C6000C8A008FFC8A000FFD0A008FFC8A000FFD0
:100C7000C8A008FFD0A000FFC8A008FFC8A000FFC0
:100C8000D0A008FFC8A000FFC8A008FFD0A000FFA8
:100C9000C8A008FFC8A000FFD0A008FFC8A000FFA0
:100CA000C8A008FFD0A000FFC8A008FFC8A000FF90
:100CB000D0A008FFC8A000FFC8A008FFD0A000FF78
:100CC000C8A008FFC8A000FFD0A008FFC8A000FF70
:100CD000C8A008FFD0A000FFC8A008FFC8A000FF60
:100CE000D0A008FFC8A000FFC8A008FFD0A000FF48
:100CF000C8A008FFC8A000FFD0A008FFC8A000FF40
:100D0000C8A008FFD0A000FFC8A008FFC8A000FF2F
:100D1000D0A008FFC8A000FFC8A008FFD0A000FF17
:100D2000C8A008FFC8A000FFD0A008FFC8A000FF0F
:100D3000C8A008FFD0A000FFC8A008FFC8A000FFFF
:100D4000D0A008FFC8A000FFC8A008FFD0A000FFE7
:100D5000C8A008FFC8A000FFD0A000FFC8A008FFDF
:100D6000C8A000FFD0A008FFC8A000FFC8A400FFD3
:100D7000C8A008FFC8A000FFC8A000FFC8A008FFC7
:100D8000C8A008FFC8A400FFC8A008FFC8A008FFAB
:100D9000C8A400FFC8A008FFC8A008AA808000005F
:100DA0000000000000000000000000000000000043
:100DB0000000000000000000C8A00082C8A008FFDA
:100DC000C8A008FFC8A000FFC8A408FFC8A008FF6B
:100DD000C8A008FFC8A000FFC8A400FFC8A008FF63
:100DE000C8A000FFC8A408FFC8A008FFC8A000FF53
:100DF000C8A408FFC8A000FFC8A008FFC8A400FF3F
:100E0000C8A400FFC8A008FFC8A000FFC8A408FF2E
:100E1000C8A400FFC8A008FFC8A000FFC8A408FF1E
:100E2000C8A400FFC8A008FFC8A000FFC8A408FF0E
:100E3000C8A400FFC8A008FFC8A000FFC8A408FFFE
:100E4000C8A400FFC8A008FFC8A000FFC8A408FFEE
:100E5000C8A400FFC8A008FFC8A000FFC8A408FFDE
:100E6000C8A400FFC8A008FFC8A000FFC8A408FFCE
:100E7000C8A400FFC8A008FFC8A000FFC8A408FFBE
:100E8000C8A400FFC8A008FFC8A000FFC8A408FFAE
:100E9000C8A400FFC8A008FFC8A000FFC8A408FF9E
:100EA000C8A400FFC8A008FFC8A000FFC8A408FF8E
:100EB000C8A400FFC8A008FFC8A000FFC8A408FF7E
:100EC000C8A400FFC8A008FFC8A000FFC8A408FF6E
:100ED000C8A400FFC8A008FFC8A000FFC8A408FF5E
:100EE000C8A400FFC8A008FFC8A000FFC8A408FF4E
:100EF000C8A400FFC8A008FFC8A000FFC8A408FF3E
:100F0000C8A400FFC8A008FFC8A000FFC8A408FF2D
:100F1000C8A400FFC8A008FFC8A000FFC8A408FF1D
:100F2000C8A400FFC8A008FFC8A000FFC8A408FF0D
:100F3000C8A400FFC8A008FFC8A000FFC8A408FFFD
:100F4000C8A400FFC8A008FFC8A000FFC8A408FFED
:100F5000C8A400FFC8A008FFC8A008FFC8A400FFDD
:100F6000C8A400FFC8A008FFC8A008FFC8A000FFD1
:100F7000C8A408FFC8A008FFC8A000FFC8A400FFBD
:100F8000C8A008FFC8A000FFD0A000FFC8A408FFA9
:100F9000C8A000FFC8A000FFC8A008FFC8A0007D2F
:100FA0000000000000000000000000000000000041
:100FB00000000000C8A00034C8A008FBC8A000FFC3
:100FC000C8A000FFC8A408FFC8A000FFD0A000FF71
:100FD000C8A008FFC8A408FFC8A000FFC8A008FF59
:100FE000C8A000FFC8A008FFD0A000FFC8A008FF4D
:100FF000C8A400FFC8A008FFC8A008FFC8A000FF41
:10100000D0A008FFC8A008FFC8A400FFC8A000FF28
:10101000C8A008FFC8A000FFC8A008FFC8A000FF24
:10102000C8A008FFC8A400FFC8A008FFC8A000FF10
:10103000C8A008FFC8A000FFC8A008FFC8A000FF04
:10104000C8A008FFC8A400FFC8A008FFC8A000FFF0
:10105000C8A008FFC8A000FFC8A008FFC8A000FFE4
:10106000C8A008FFC8A400FFC8A008FFC8A000FFD0
:10107000C8A008FFC8A000FFC8A008FFC8A000FFC4
:10108000C8A008FFC8A400FFC8A008FFC8A000FFB0
:10109000C8A008FFC8A000FFC8A008FFC8A000FFA4
:1010A000C8A008FFC8A400FFC8A008FFC8A000FF90
:1010B000C8A008FFC8A000FFC8A008FFC8A000FF84
:1010C000C8A008FFC8A400FFC8A008FFC8A000FF70
:1010D000C8A008FFC8A000FFC8A008FFC8A000FF64
:1010E000C8A008FFC8A400FFC8A008FFC8A000FF50
:1010F000C8A008FFC8A000FFC8A008FFC8A000FF44
:10110000C8A008FFC8A400FFC8A008FFC8A000FF2F
:10111000C8A008FFC8A000FFC8A008FFC8A000FF23
:10112000C8A008FFC8A400FFC8A008FFC8A000FF0F
:10113000C8A008FFC8A000FFC8A008FFC8A000FF03
:10114000C8A008FFC8A400FFC8A008FFC8A000FFEF
:10115000C8A000FFC8A008FFC8A008FFC8A000FFE3
:10116000C8A008FFC8A400FFD0A000FFC8A008FFC7
:10117000C8A000FFD0A408FFC8A008FFC8A000FFB7
:10118000D0A408FFC8A000FFC8A008FFC8A008FF9F
:10119000C8A000FFC8A408FFC8A000FFC8A000FBAB
:1011A000C8A008300000000000000000000000009F
:1011B00000000000C8A000C7C8A008FFC8A008FF22
:1011C000C8A000FFC8A008FFC8A000FFC8A400FF77
:1011D000C8A008FFD0A000FFC8A008FFC8A400FF57
:1011E000D0A008FFC8A400FFC8A000FFC8A008FF47
:1011F000C8A000FFD0A400FFC8A008FFC8A000FF3F
:10120000C8A008FFC8A000FFC8A008FFD0A008FF22
:10121000C8A000FFC8A408FFD0A000FFC8A008FF16
:10122000C8A000FFD0A008FFC8A000FFC8A008FF0A
:10123000D0A400FFC8A008FFC8A400FFD0A008FFEA
:10124000C8A000FFC8A008FFD0A000FFC8A008FFEA
:10125000C8A400FFD0A008FFC8A400FFC8A008FFD2
:10126000D0A000FFC8A008FFC8A000FFD0A008FFC2
:10127000C8A400FFC8A008FFD0A400FFC8A008FFB2
:10128000C8A000FFD0A008FFC8A000FFC8A008FFAA
:10129000D0A400FFC8A008FFC8A400FFD0A008FF8A
:1012A000C8A000FFC8A008FFD0A000FFC8A008FF8A
:1012B000C8A400FFD0A008FFC8A400FFC8A008FF72
:1012C000D0A000FFC8A008FFC8A000FFD0A008FF62
:1012D000C8A400FFC8A008FFD0A400FFC8A008FF52
:1012E000C8A000FFD0A008FFC8A000FFC8A008FF4A
:1012F000D0A400FFC8A008FFC8A400FFD0A008FF2A
:10130000C8A000FFC8A008FFD0A000FFC8A008FF29
:10131000C8A400FFD0A008FFC8A400FFC8A008FF11
:10132000D0A000FFC8A008FFC8A000FFD0A008FF01
:10133000C8A400FFC8A008FFD0A400FFC8A008FFF1
:10134000C8A000FFD0A008FFC8A008FFC8A000FFE9
:10135000D0A408FFC8A000FFC8A400FFD0A008FFC9
:10136000C8A008FFC8A000FFC8A408FFC8A000FFCD
:10137000C8A000FFC8A008FFC8A000FFC8A008FFC1
:10138000C8A000FFC8A408FFC8A000FFC8A000FFB5
:10139000C8A408FFD0A008FFC8A000FFC8A008FF8D
:1013A000C8A000C300000000000000000000000012
:1013B000C8A00041C8A008FFC8A000FFC8A408FF3B
:1013C000C8A008FFC8A000FFC8A408FFC8A008FF65
:1013D000C8A000FFC8A008FFC8A400FFC8A008FF5D
:1013E000C8A008FFC8A000FFC8A408FFC8A008FF45
:1013F000C8A000FFC8A008FFC8A400FFC8A008FF3D
:10140000C8A400FFC8A400FFC8A008FFC8A000FF30
:10141000C8A408FFC8A000FFC8A408FFC8A400FF14
:10142000C8A008FFC8A000FFC8A408FFC8A000FF0C
:10143000C8A008FFC8A400FFC8A008FFC8A000FFFC
:10144000C8A408FFC8A000FFC8A008FFC8A400FFE8
:10145000C8A008FFC8A000FFC8A408FFC8A000FFDC
:10146000C8A008FFC8A400FFC8A008FFC8A000FFCC
:10147000C8A408FFC8A000FFC8A008FFC8A400FFB8
:10148000C8A008FFC8A000FFC8A408FFC8A000FFAC
:10149000C8A008FFC8A400FFC8A008FFC8A000FF9C
:1014A000C8A408FFC8A000FFC8A008FFC8A400FF88
:1014B000C8A008FFC8A000FFC8A408FFC8A000FF7C
:1014C000C8A008FFC8A400FFC8A008FFC8A000FF6C
:1014D000C8A408FFC8A000FFC8A008FFC8A400FF58
:1014E000C8A008FFC8A000FFC8A408FFC8A000FF4C
:1014F000C8A008FFC8A400FFC8A008FFC8A000FF3C
:10150000C8A408FFC8A000FFC8A008FFC8A400FF27
:10151000C8A008FFC8A000FFC8A408FFC8A000FF1B
:10152000C8A008FFC8A400FFC8A008FFC8A000FF0B
:10153000C8A408FFC8A000FFC8A008FFC8A400FFF7
:10154000C8A000FFC8A008FFC8A400FFC8A008FFEB
:10155000C8A008FFC8A400FFC8A000FFC8A008FFDB
:10156000C8A400FFC8A008FFC8A008FFC8A400FFC7
:10157000C8A008FFC8A000FFC8A400FFC8A008FFBB
:10158000C8A000FFC8A008FFD0A400FFC8A000FFAB
:10159000C8A008FFC8A000FFC8A408FFC8A008FF93
:1015A000C8A000FFC8A4083C000000000000000024
:1015B000C8A008A6C8A000FFC8A000FFC8A400FFDC
:1015C000C8A008FFD0A000FFC8A408FFC8A000FF63
:1015D000C8A008FFC8A400FFC8A000FFC8A008FF5B
:1015E000C8A000FFC8A000FFD0A408FFC8A000FF4B
:1015F000C8A008FFC8A008FFD0A000FFC8A008FF2F
:10160000C8A008FFD0A000FFC8A008FFC8A400FF22
:10161000C8A000FFD0A008FFC8A000FFC8A008FF16
:10162000C8A000FFC8A408FFD0A000FFC8A008FF02
:10163000C8A000FFC8A008FFD0A000FFC8A008FFF6
:10164000C8A400FFC8A008FFC8A000FFD0A408FFDE
:10165000C8A000FFC8A008FFC8A000FFD0A008FFD6
:10166000C8A400FFC8A008FFC8A000FFC8A008FFCA
:10167000D0A000FFC8A008FFC8A000FFC8A008FFB6
:10168000D0A400FFC8A008FFC8A000FFC8A008FFA2
:10169000C8A000FFD0A008FFC8A000FFC8A008FF96
:1016A000C8A400FFD0A008FFC8A000FFC8A408FF7E
:1016B000C8A000FFC8A008FFD0A000FFC8A008FF76
:1016C000C8A400FFC8A008FFD0A000FFC8A008FF62
:1016D000C8A000FFC8A008FFC8A000FFD0A008FF56
:1016E000C8A400FFC8A008FFC8A000FFD0A008FF42
:1016F000C8A000FFC8A008FFC8A000FFC8A008FF3E
:10170000D0A400FFC8A008FFC8A000FFC8A408FF1D
:10171000D0A000FFC8A008FFC8A000FFC8A008FF15
:10172000C8A400FFD0A008FFC8A000FFC8A008FF01
:10173000C8A000FFD0A008FFC8A000FFC8A008FFF5
:10174000C8A408FFC8A000FFD0A000FFC8A000FFE9
:10175000C8A008FFC8A008FFD0A000FFC8A008FFCD
:10176000C8A000FFD0A000FFC8A008FFC8A008FFC5
:10177000D0A400FFC8A008FFC8A008FFD0A400FFA5
:10178000C8A008FFC8A008FFC8A008FFC8A400FFA1
:10179000C8A008FFC8A000FFC8A400FFC8A008FF99
:1017A000C8A000FFC8A000A200000000C898000464
:1017B000C8A008F3C8A008FFC8A400FFC8A008FF7D
:1017C000C8A000FFC8A008FFC8A000FFD0A000FF6D
:1017D000C8A008FFC8A008FFD0A000FFC8A408FF49
:1017E000C8A000FFC8A008FFC8A000FFC8A400FF51
:1017F000C8A008FFC8A400FFC8A000FFC8A008FF39
:10180000C8A400FFC8A008FFC8A008FFC8A000FF28
:10181000C8A008FFC8A008FFC8A000FFD0A000FF14
:10182000C8A408FFC8A000FFC8A008FFC8A400FF04
:10183000C8A008FFC8A000FFC8A408FFC8A000FFF8
:10184000D0A008FFC8A000FFC8A008FFC8A000FFE4
:10185000C8A008FFC8A400FFC8A008FFC8A000FFD8
:10186000C8A008FFD0A400FFC8A008FFC8A400FFBC
:10187000C8A008FFC8A400FFC8A008FFC8A000FFB8
:10188000C8A008FFC8A400FFD0A008FFC8A400FF9C
:10189000C8A008FFC8A400FFC8A008FFC8A000FF98
:1018A000C8A008FFC8A000FFC8A008FFD0A000FF84
:1018B000C8A008FFC8A400FFC8A008FFC8A000FF78
:1018C000C8A008FFC8A400FFC8A008FFC8A400FF64
:1018D000D0A008FFC8A400FFC8A008FFC8A000FF50
:1018E000C8A008FFC8A400FFC8A008FFC8A400FF44
:1018F000C8A008FFD0A400FFC8A008FFC8A000FF30
:10190000C8A008FFC8A000FFC8A008FFC8A000FF2B
:10191000C8A008FFC8A400FFD0A008FFC8A000FF0F
:10192000C8A008FFC8A400FFC8A008FFC8A400FF03
:10193000C8A008FFC8A400FFC8A000FFD0A008FFEF
:10194000C8A008FFC8A400FFC8A008FFC8A400FFE3
:10195000C8A000FFC8A408FFC8A008FFC8A400FFD3
:10196000C8A008FFC8A400FFC8A000FFC8A008FFC7
:10197000C8A000FFC8A008FFC8A000FFC8A400FFBF
:10198000C8A000FFC8A008FFC8A000FFC8A008FFAB
:10199000D0A008FFC8A000FFC8A008FFC8A408FF87
:1019A000C8A000FFC8A008EFF8AC0004C8A000342D
:1019B000C8A000FFC8A008FFC8A008FFC8A000FF7B
:1019C000C8A408FFC8A008FFC8A000FFC8A408FF5B
:1019D000C8A400FFC8A008FFC8A008FFC8A400FF53
:1019E000C8A008FFD0A008FFC8A400FFC8A008FF37
:1019F000D0A008FFC8A000FFC8A408FFC8A000FF2F
:101A0000C8A000FFC8A408FFD0A000FFC8A000FF26
:101A1000C8A408FFC8A408FFC8A000FFC8A008FF0A
:101A2000C8A008FFC8A000FFC8A000FFD0A408FFFE
:101A3000C8A000FFC8A008FFC8A400FFC8A008FFF6
:101A4000C8A000FFC8A408FFC8A000FFC8A008FFE6
:101A5000D0A400FFC8A008FFC8A000FFC8A008FFCE
:101A6000C8A400FFC8A008FFC8A000FFC8A008FFC6
:101A7000C8A000FFD0A408FFC8A000FFC8A008FFAE
:101A8000C8A000FFC8A008FFC8A000FFC8A008FFAA
:101A9000C8A400FFC8A008FFD0A000FFC8A408FF8A
:101AA000C8A000FFC8A408FFC8A000FFC8A008FF86
:101AB000C8A400FFC8A008FFC8A000FFD0A008FF6E
:101AC000C8A400FFC8A008FFC8A000FFC8A008FF66
:101AD000C8A000FFC8A408FFC8A000FFC8A008FF56
:101AE000D0A000FFC8A008FFC8A000FFC8A008FF42
:101AF000C8A400FFC8A008FFC8A000FFC8A408FF32
:101B0000C8A000FFD0A408FFC8A000FFC8A008FF1D
:101B1000C8A400FFC8A008FFC8A000FFC8A008FF15
:101B2000C8A400FFC8A008FFD0A000FFC8A008FFFD
:101B3000C8A008FFC8A400FFC8A008FFC8A000FFF5
:101B4000C8A000FFC8A008FFC8A008FFD0A008FFD9
:101B5000C8A400FFC8A000FFC8A008FFC8A000FFDD
:101B6000C8A408FFC8A008FFC8A000FFC8A400FFC1
:101B7000C8A008FFD0A000FFC8A408FFC8A008FFA5
:101B8000C8A000FFD0A400FFC8A408FFC8A000FFA1
:101B9000C8A400FFC8A008FFC8A000FFD0A000FF95
:101BA000C8A008FFC8A008FFC8A00830C8A0085DEA
:101BB000C8A400FFC8A000FFC8A008FFD0A400FF71
:101BC000C8A000FFC8A008FFC8A000FFC8A008FF69
:101BD000C8A000FFC8A000FFC8A008FFC8A000FF61
:101BE000C8A000FFC8A408FFC8A000FFC8A008FF45
:101BF000C8A000FFC8A008FFC8A008FFD0A000FF31
:101C0000C8A008FFC8A408FFC8A000FFC8A000FF24
:101C1000C8A008FFD0A000FFC8A400FFC8A008FF0C
:101C2000C8A400FFC8A008FFC8A008FFC8A000FF04
:101C3000C8A008FFC8A000FFD0A008FFC8A000FFF0
:101C4000C8A408FFC8A000FFC8A008FFC8A400FFE0
:101C5000C8A008FFC8A000FFC8A008FFD0A400FFCC
:101C6000C8A008FFC8A000FFC8A008FFC8A000FFC8
:101C7000C8A008FFC8A000FFC8A408FFC8A000FFB4
:101C8000D0A408FFC8A000FFC8A008FFC8A000FF9C
:101C9000C8A008FFC8A000FFC8A008FFC8A000FF98
:101CA000C8A408FFD0A000FFC8A008FFC8A400FF78
:101CB000C8A008FFC8A000FFC8A008FFC8A400FF74
:101CC000C8A008FFC8A000FFD0A008FFC8A000FF60
:101CD000C8A008FFC8A000FFC8A408FFC8A000FF54
:101CE000C8A408FFC8A000FFC8A008FFD0A000FF3C
:101CF000C8A008FFC8A000FFC8A008FFC8A000FF38
:101D0000C8A408FFC8A000FFC8A008FFC8A400FF1F
:101D1000D0A008FFC8A000FFC8A008FFC8A400FF0B
:101D2000C8A008FFC8A000FFC8A000FFC8A008FF07
:101D3000C8A000FFD0A008FFC8A408FFC8A000FFEB
:101D4000C8A400FFC8A008FFC8A000FFC8A008FFE3
:101D5000C8A008FFD0A000FFC8A000FFC8A008FFCF
:101D6000D0A000FFC8A008FFC8A008FFD0A400FFB3
:101D7000C8A008FFC8A000FFC8A408FFC8A008FFAB
:101D8000C8A000FFC8A008FFC8A008FFC8A000FFA7
:101D9000C8A408FFC8A008FFC8A000FFC8A400FF8F
:101DA000C8A008FFC8A000FFC8A00059C8A00879B3
:101DB000C8A000FFC8A008FFC8A408FFC8A000FF73
:101DC000C8A008FFD0A400FFC8A008FFC8A000FF5B
:101DD000D0A408FFC8A000FFD0A408FFC8A000FF3F
:101DE000C8A008FFC8A000FFC8A008FFC8A400FF43
:101DF000C8A400FFC8A008FFC8A400FFC8A000FF37
:101E0000C8A008FFC8A000FFC8A408FFC8A008FF1A
:101E1000C8A000FFC8A008FFC8A008FFC8A000FF16
:101E2000D0A400FFC8A008FFC8A000FFC8A408FFF6
:101E3000C8A400FFC8A008FFC8A000FFC8A408FFEE
:101E4000C8A000FFD0A008FFC8A000FFC8A008FFDE
:101E5000C8A000FFC8A408FFC8A000FFC8A008FFD2
:101E6000C8A000FFC8A408FFD0A400FFC8A008FFB6
:101E7000C8A400FFC8A008FFC8A000FFC8A008FFB2
:101E8000C8A400FFC8A008FFC8A400FFD0A408FF92
:101E9000C8A000FFC8A408FFC8A000FFC8A008FF92
:101EA000C8A000FFC8A008FFC8A000FFC8A008FF86
:101EB000D0A000FFC8A408FFC8A000FFC8A008FF6A
:101EC000C8A000FFC8A408FFC8A400FFC8A008FF5E
:101ED000C8A400FFD0A008FFC8A000FFC8A008FF4A
:101EE000C8A400FFC8A008FFC8A400FFC8A408FF3A
:101EF000C8A000FFC8A408FFD0A000FFC8A008FF2A
:101F0000C8A000FFC8A008FFC8A000FFC8A008FF25
:101F1000C8A000FFC8A408FFC8A000FFD0A008FF09
:101F2000C8A000FFC8A408FFC8A408FFC8A000FFFD
:101F3000C8A400FFC8A000FFC8A008FFC8A008FFF1
:101F4000D0A400FFC8A008FFC8A400FFC8A400FFD9
:101F5000C8A008FFC8A408FFC8A000FFC8A408FFC5
:101F6000C8A000FFC8A000FFC8A408FFC8A008FFC1
:101F7000C8A000FFC8A000FFC8A008FFC8A000FFBD
:101F8000D0A400FFC8A008FFC8A000FFD0A000FF99
:101F9000C8A008FFC8A000FFD0A408FFC8A008FF81
:101FA000C8A400FFC8A000FFC8A00871C8A0008294
:101FB000C8A008FFC8A000FFC8A000FFC8A008FF75
:101FC000C8A000FFC8A408FFC8A000FFC8A008FF61
:101FD000C8A408FFC8A000FFC8A008FFC8A408FF45
:101FE000D0A000FFC8A008FFC8A008FFD0A000FF35
:101FF000C8A008FFC8A000FFD0A008FFC8A408FF21
:10200000C8A000FFD0A000FFC8A008FFC8A400FF20
:10201000D0A000FFC8A408FFC8A008FFC8A000FF08
:10202000C8A008FFC8A000FFD0A008FFC8A000FFFC
:10203000C8A008FFD0A400FFC8A008FFC8A000FFE8
:10204000C8A008FFC8A400FFC8A008FFD0A000FFD8
:10205000C8A408FFC8A000FFD0A008FFC8A000FFC8
:10206000C8A008FFC8A000FFC8A008FFC8A000FFC4
:10207000D0A008FFC8A400FFC8A008FFD0A000FFA0
:10208000C8A008FFC8A000FFC8A008FFC8A000FFA4
:10209000C8A008FFD0A000FFC8A408FFC8A000FF88
:1020A000D0A408FFC8A000FFC8A408FFC8A000FF74
:1020B000C8A008FFC8A400FFD0A008FFC8A000FF68
:1020C000C8A008FFD0A000FFC8A008FFC8A000FF5C
:1020D000C8A008FFC8A400FFC8A008FFD0A000FF48
:1020E000C8A008FFC8A000FFD0A008FFC8A000FF3C
:1020F000C8A008FFC8A000FFC8A408FFC8A000FF30
:10210000D0A408FFC8A000FFC8A408FFD0A000FF0B
:10211000C8A008FFC8A400FFC8A008FFC8A000FF0F
:10212000C8A000FFD0A008FFC8A008FFC8A000FFFB
:10213000D0A008FFC8A400FFC8A000FFC8A008FFE7
:10214000C8A008FFC8A000FFD0A008FFC8A000FFDB
:10215000C8A000FFC8A008FFC8A400FFC8A008FFCF
:10216000C8A008FFD0A400FFC8A000FFC8A008FFB7
:10217000C8A400FFD0A008FFC8A008FFC8A400FFA3
:10218000C8A008FFC8A008FFC8A400FFC8A008FF97
:10219000C8A000FFC8A400FFC8A008FFC8A008FF8F
:1021A000C8A000FFC8A408FFC8A0007DC8A0008286
:1021B000C8A008FFC8A000FFD0A408FFC8A008FF5F
:1021C000C8A000FFC8A000FFC8A008FFC8A000FF6B
:1021D000C8A000FFC8A008FFC8A000FFC8A400FF57
:1021E000C8A008FFC8A400FFC8A000FFC8A008FF3F
:1021F000C8A400FFC8A008FFC8A000FFC8A008FF2F
:10220000C8A400FFC8A008FFC8A008FFC8A000FF1E
:10221000C8A008FFC8A400FFC8A000FFC8A008FF0E
:10222000C8A000FFC8A008FFC8A000FFC8A008FF02
:10223000C8A000FFC8A008FFC8A400FFC8A008FFEE
:10224000C8A000FFC8A008FFC8A000FFC8A008FFE2
:10225000C8A000FFC8A008FFC8A000FFC8A408FFCE
:10226000C8A000FFC8A008FFC8A000FFC8A008FFC2
:10227000C8A000FFC8A008FFC8A000FFC8A408FFAE
:10228000C8A000FFC8A008FFC8A000FFC8A008FFA2
:10229000C8A000FFC8A008FFC8A000FFC8A008FF92
:1022A000C8A000FFC8A008FFC8A400FFC8A008FF7E
:1022B000C8A000FFC8A008FFC8A400FFC8A008FF6E
:1022C000C8A400FFC8A008FFC8A000FFC8A008FF5E
:1022D000C8A000FFC8A008FFC8A000FFC8A008FF52
:1022E000C8A000FFC8A408FFC8A000FFC8A008FF3E
:1022F000C8A000FFC8A008FFC8A000FFC8A008FF32
:10230000C8A000FFC8A008FFC8A000FFC8A008FF21
:10231000C8A000FFC8A008FFC8A008FFC8A000FF11
:10232000C8A408FFC8A000FFC8A000FFC8A008FFFD
:10233000C8A008FFC8A008FFC8A000FFC8A400FFED
:10234000C8A008FFC8A000FFC8A008FFC8A008FFD9
:10235000C8A000FFD0A000FFC8A008FFC8A000FFD1
:10236000C8A008FFC8A000FFC8A008FFC8A000FFC1
:10237000C8A008FFC8A000FFC8A000FFC8A008FFB1
:10238000C8A000FFC8A000FFC8A408FFC8A008FF9D
:10239000C8A000FFC8A008FFC8A000FFC8A000FF99
:1023A000C8A008FFC8A008FFC8A0007DC8A0008280
:1023B000C8A008FFC8A000FFC8A000FFC8A408FF6D
:1023C000C8A008FFD0A000FFC8A408FFC8A008FF4D
:1023D000D0A000FFC8A408FFC8A000FFC8A008FF45
:1023E000C8A008FFC8A000FFC8A408FFC8A000FF3D
:1023F000C8A008FFC8A000FFC8A000FFC8A008FF31
:10240000C8A000FFC8A408FFC8A000FFC8A008FF1C
:10241000C8A008FFC8A000FFC8A408FFC8A000FF0C
:10242000C8A008FFC8A000FFC8A008FFC8A400FFFC
:10243000C8A008FFC8A000FFC8A008FFD0A400FFE4
:10244000C8A008FFC8A000FFC8A408FFC8A000FFDC
:10245000C8A008FFC8A000FFC8A008FFC8A000FFD0
:10246000C8A408FFC8A000FFC8A408FFC8A000FFB8
:10247000C8A008FFC8A000FFC8A408FFC8A000FFAC
:10248000C8A008FFD0A400FFC8A408FFC8A000FF90
:10249000C8A008FFC8A400FFC8A008FFC8A000FF8C
:1024A000C8A008FFC8A000FFC8A008FFC8A000FF80
:1024B000C8A008FFC8A000FFC8A008FFC8A000FF70
:1024C000C8A008FFC8A000FFC8A008FFC8A000FF60
:1024D000C8A008FFC8A000FFC8A008FFC8A000FF50
:1024E000C8A008FFC8A000FFC8A008FFC8A400FF3C
:1024F000C8A008FFC8A000FFC8A008FFC8A000FF30
:10250000C8A008FFC8A000FFC8A008FFC8A000FF1F
:10251000C8A400FFC8A008FFC8A000FFC8A008FF0B
:10252000C8A008FFC8A000FFC8A000FFC8A408FFFB
:10253000C8A000FFC8A008FFC8A008FFC8A000FFEF
:10254000C8A000FFC8A408FFC8A000FFC8A408FFD7
:10255000C8A008FFC8A400FFC8A008FFC8A000FFCB
:10256000C8A000FFC8A008FFC8A008FFC8A000FFBF
:10257000C8A008FFC8A000FFC8A008FFC8A408FFA3
:10258000C8A000FFC8A000FFC8A008FFC8A000FFA7
:10259000C8A008FFC8A008FFC8A400FFC8A000FF8B
:1025A000C8A008FFC8A000FFC8A0087DC8A000827E
:1025B000C8A008FFC8A008FFC8A000FFC8A000FF6F
:1025C000C8A408FFC8A000FFC8A000FFC8A408FF57
:1025D000C8A008FFC8A000FFC8A408FFC8A000FF4B
:1025E000C8A000FFD0A008FFC8A000FFC8A408FF33
:1025F000C8A008FFC8A000FFC8A408FFC8A008FF23
:10260000C8A000FFD0A000FFC8A408FFC8A000FF1A
:10261000D0A400FFC8A008FFC8A000FFD8B438FFAE
:10262000E8DCA0FFF0E8C0FFF0E8C0FFF8E8C0FF7A
:10263000F8E8C0FFF0E8C0FFF0E8C0FFF8E8C0FF2E
:10264000F0E8C0FFF0E8C0FFF0E8C0FFF0E8C0FF2E
:10265000F0E8C0FFF0E8C0FFF0E8C0FFF0E8C0FF1E
:10266000F0E4B0FFE0CC78FFD0A410FFC8A000FFDA
:10267000C8A408FFC8A000FFC8A000FFC8A008FFAA
:10268000C8A000FFC8A008FFC8A000FFC8A008FF9E
:10269000C8A000FFC8A008FFC8A400FFC8A008FF8A
:1026A000C8A400FFC8A008FFC8A000FFC8A408FF76
:1026B000C8A000FFC8A008FFC8A000FFC8A008FF6E
:1026C000C8A000FFC8A008FFC8A000FFC8A008FF5E
:1026D000C8A000FFC8A008FFC8A000FFC8A008FF4E
:1026E000C8A000FFC8A008FFC8A000FFC8A008FF3E
:1026F000E0C058FFF0E0A8FFF0E8C0FFF0E8C0FF3E
:10270000F0E8C0FFF0E8C0FFF0E8C0FFF8E8C0FF65
:10271000F0E8C0FFF0E8C0FFF0E8C0FFF0E8C0FF5D
:10272000F0E8C0FFF0E8C0FFF0E8C0FFF0E8C0FF4D
:10273000F0E8C0FFF0E0B0FFE0C058FFC8A000FF25
:10274000C8A008FFC8A008FFC8A000FFC8A000FFDD
:10275000C8A008FFC8A008FFC8A000FFC8A008FFC5
:10276000C8A000FFC8A008FFC8A000FFC8A000FFC5
:10277000C8A008FFC8A408FFC8A000FFC8A008FFA1
:10278000C8A008FFC8A000FFC8A008FFC8A000FF9D
:10279000C8A000FFC8A008FFC8A008FFC8A400FF89
:1027A000C8A008FFC8A000FFC8A0007DC8A0008284
:1027B000C8A008FFC8A408FFC8A000FFC8A008FF61
:1027C000C8A008FFC8A000FFC8A000FFC8A008FF5D
:1027D000C8A000FFC8A000FFC8A008FFC8A000FF55
:1027E000C8A408FFC8A008FFC8A000FFC8A000FF39
:1027F000C8A008FFC8A000FFC8A008FFC8A000FF2D
:10280000C8A008FFC8A008FFC8A000FFC8A008FF14
:10281000C8A000FFC8A008FFD0A810FFF8F8F0FF7C
:10282000F8FCF8FFF8FCF8FFF8FCF8FFF8FCF8FFFC
:10283000F8FCF8FFF8FCF8FFF8FCF8FFF8FCF8FFEC
:10284000F8FCF8FFF8FCF8FFF8FCF8FFF8FCF8FFDC
:10285000F8FCF8FFF8FCF8FFF8FCF8FFF8FCF8FFCC
:10286000F8FCF8FFF8FCF8FFF8F0D8FFD0A410FF50
:10287000C8A000FFC8A008FFC8A008FFD0A400FFA0
:10288000C8A008FFC8A000FFC8A008FFC8A000FF9C
:10289000C8A008FFD0A000FFC8A008FFC8A000FF84
:1028A000C8A008FFC8A000FFC8A008FFC8A000FF7C
:1028B000C8A008FFC8A000FFC8A008FFC8A000FF6C
:1028C000C8A008FFC8A000FFC8A008FFC8A000FF5C
:1028D000C8A008FFC8A000FFC8A008FFC8A000FF4C
:1028E000C8A008FFC8A000FFC8A000FFE8DCA0FF48
:1028F000F8FCF8FFF8FCF8FFF8FCF8FFF8FCF8FF2C
:10290000F8FCF8FFF8FCF8FFF8FCF8FFF8FCF8FF1B
:10291000F8FCF8FFF8FCF8FFF8FCF8FFF8FCF8FF0B
:10292000F8FCF8FFF8FCF8FFF8FCF8FFF8FCF8FFFB
:10293000F8FCF8FFF8FCF8FFF8FCF8FFD8BC48FFFB
:10294000C8A008FFC8A000FFC8A000FFC8A008FFDB
:10295000C8A000FFC8A000FFC8A008FFC8A008FFCB
:10296000C8A000FFC8A008FFC8A008FFC8A000FFBB
:10297000C8A000FFC8A008FFC8A000FFC8A000FFB3
:10298000C8A008FFC8A000FFC8A008FFC8A008FF93
:10299000C8A000FFC8A000FFC8A008FFC8A008FF8B
:1029A000C8A000FFC8A008FFC8A0087DC8A000827A
:1029B000C8A000FFC8A000FFC8A008FFC8A000FF73
:1029C000C8A008FFC8A008FFC8A000FFC8A008FF53
:1029D000C8A008FFC8A000FFD0A008FFC8A008FF3B
:1029E000C8A400FFC8A000FFC8A008FFC8A008FF37
:1029F000C8A000FFC8A008FFC8A000FFC8A000FF33
:102A0000C8A008FFC8A000FFC8A000FFC8A008FF1A
:102A1000C8A008FFC8A000FFD0B030FFF8FCF8FF46
:102A2000F8FCF8FFF8FCF8FFF8FCF8FFF8FCF8FFFA
:102A3000F8FCF8FFF8FCF8FFF8FCF8FFF8FCF8FFEA
:102A4000F8FCF8FFF8FCF8FFF8FCF8FFF8FCF8FFDA
:102A5000F8FCF8FFF8FCF8FFF8FCF8FFF8FCF8FFCA
:102A6000F8FCF8FFF8FCF8FFF8FCF8FFE0D080FF76
:102A7000C8A000FFC8A008FFC8A000FFC8A008FFAA
:102A8000C8A000FFC8A008FFC8A000FFC8A008FF9A
:102A9000C8A000FFC8A008FFC8A000FFC8A008FF8A
:102AA000C8A000FFC8A008FFC8A000FFC8A008FF7A
:102AB000C8A000FFC8A008FFC8A000FFC8A008FF6A
:102AC000C8A000FFC8A008FFC8A000FFC8A008FF5A
:102AD000C8A000FFC8A008FFC8A000FFC8A008FF4A
:102AE000C8A008FFC8A000FFD8B840FFF8FCF8FF56
:102AF000F8FCF8FFF8FCF8FFF8FCF8FFF8FCF8FF2A
:102B0000F8FCF8FFF8FCF8FFF8FCF8FFF8FCF8FF19
:102B1000F8FCF8FFF8FCF8FFF8FCF8FFF8FCF8FF09
:102B2000F8FCF8FFF8FCF8FFF8FCF8FFF8FCF8FFF9
:102B3000F8FCF8FFF8FCF8FFF8FCF8FFE0CC70FFB9
:102B4000C8A000FFC8A008FFC8A008FFC8A000FFD9
:102B5000C8A008FFC8A000FFC8A000FFC8A008FFC9
:102B6000C8A000FFC8A000FFC8A008FFC8A008FFB9
:102B7000C8A000FFC8A008FFC8A000FFC8A008FFA9
:102B8000C8A000FFC8A000FFC8A008FFC8A008FF99
:102B9000C8A000FFC8A000FFC8A008FFC8A000FF91
:102BA000C8A000FFC8A008FFC8A0007DC8A0008280
:102BB000C8A008FFC8A008FFC8A000FFC8A000FF69
:102BC000C8A008FFC8A000FFC8A000FFC8A008FF59
:102BD000C8A000FFC8A000FFC8A008FFC8A000FF51
:102BE000C8A000FFC8A008FFC8A000FFC8A000FF41
:102BF000C8A008FFC8A000FFC8A008FFC8A008FF21
:102C0000C8A000FFC8A008FFC8A000FFC8A008FF18
:102C1000C8A000FFC8A000FFC8A008FFF8F4E0FFAC
:102C2000F8FCF8FFF8FCF8FFF8FCF8FFF8FCF8FFF8
:102C3000F8FCF8FFF8FCF8FFF8FCF8FFF8FCF8FFE8
:102C4000F8FCF8FFF8FCF8FFF8FCF8FFF8FCF8FFD8
:102C5000F8FCF8FFF8FCF8FFF8FCF8FFF8FCF8FFC8
:102C6000F8FCF8FFF8FCF8FFF8FCF8FFF8F8F0FFC4
:102C7000D0A818FFC8A008FFC8A000FFC8A000FF88
:102C8000C8A008FFC8A000FFC8A008FFC8A000FF98
:102C9000C8A008FFC8A000FFC8A008FFC8A000FF88
:102CA000C8A008FFC8A000FFC8A008FFC8A000FF78
:102CB000C8A008FFC8A000FFC8A008FFC8A000FF68
:102CC000C8A008FFC8A000FFC8A008FFC8A000FF58
:102CD000C8A008FFC8A000FFC8A000FFC8A008FF48
:102CE000C8A000FFC8A008FFF0E8C0FFF8FCF8FF8C
:102CF000F8FCF8FFF8FCF8FFF8FCF8FFF8FCF8FF28
:102D0000F8FCF8FFF8FCF8FFF8FCF8FFF8FCF8FF17
:102D1000F8FCF8FFF8FCF8FFF8FCF8FFF8FCF8FF07
:102D2000F8FCF8FFF8FCF8FFF8FCF8FFF8FCF8FFF7
:102D3000F8FCF8FFF8FCF8FFF8FCF8FFD0B030FF23
:102D4000C8A000FFC8A008FFC8A000FFC8A008FFD7
:102D5000C8A008FFC8A000FFC8A008FFC8A008FFBF
:102D6000C8A000FFC8A000FFC8A008FFC8A000FFBF
:102D7000C8A008FFC8A000FFC8A008FFC8A008FF9F
:102D8000C8A000FFC8A008FFC8A000FFC8A000FF9F
:102D9000C8A008FFC8A008FFC8A000FFC8A008FF7F
:102DA000C8A008FFC8A000FFC8A0007DC8A000827E
:102DB000C8A008FFC8A008FFC8A000FFC8A008FF5F
:102DC000C8A008FFC8A000FFC8A008FFC8A008FF4F
:102DD000C8A000FFC8A008FFC8A008FFC8A000FF47
:102DE000C8A008FFC8A008FFC8A000FFC8A008FF2F
:102DF000C8A008FFC8A000FFC8A000FFC8A008FF27
:102E0000C8A000FFC8A008FFC8A008FFC8A000FF16
:102E1000C8A008FFC8A008FFC8A000FFE0C460FF6A
:102E2000F8FCF8FFF8FCF8FFF8FCF8FFF8FCF8FFF6
:102E3000F8FCF8FFF8FCF8FFF8FCF8FFF8FCF8FFE6
:102E4000F8FCF8FFF8FCF8FFF8FCF8FFF8FCF8FFD6
:102E5000F8FCF8FFF8FCF8FFF8FCF8FFF8FCF8FFC6
:102E6000F8FCF8FFF8FCF8FFF8FCF8FFF8FCF8FFB6
:102E7000E8D890FFC8A008FFC8A408FFC8A000FFBA
:102E8000C8A008FFC8A008FFC8A000FFC8A008FF8E
:102E9000C8A000FFC8A008FFC8A000FFC8A008FF86
:102EA000C8A000FFC8A008FFC8A000FFC8A008FF76
:102EB000C8A000FFC8A008FFC8A000FFC8A008FF66
:102EC000C8A000FFC8A008FFC8A000FFC8A008FF56
:102ED000C8A000FFC8A008FFC8A008FFC8A000FF46
:102EE000C8A000FFD8BC50FFF8FCF8FFF8FCF8FFC2
:102EF000F8FCF8FFF8FCF8FFF8FCF8FFF8FCF8FF26
:102F0000F8FCF8FFF8FCF8FFF8FCF8FFF8FCF8FF15
:102F1000F8FCF8FFF8FCF8FFF8FCF8FFF8FCF8FF05
:102F2000F8FCF8FFF8FCF8FFF8FCF8FFF8FCF8FFF5
:102F3000F8FCF8FFF8FCF8FFF0E0A8FFC8A000FFDD
:102F4000C8A008FFC8A000FFC8A000FFC8A008FFD5
:102F5000C8A000FFC8A000FFC8A008FFC8A008FFC5
:102F6000C8A000FFC8A008FFC8A000FFC8A008FFB5
:102F7000C8A000FFC8A000FFC8A008FFC8A000FFAD
:102F8000C8A008FFC8A008FFC8A000FFC8A000FF95
:102F9000C8A008FFC8A000FFC8A000FFC8A008FF85
:102FA000C8A008FFC8A000FFC8A0087DC8A0008274
:102FB000C8A000FFC8A008FFC8A000FFC8A000FF6D
:102FC000C8A008FFC8A000FFC8A000FFC8A008FF55
:102FD000C8A000FFC8A000FFC8A008FFC8A000FF4D
:102FE000C8A008FFC8A400FFD0A000FFC8A008FF29
:102FF000C8A000FFC8A008FFC8A008FFC8A000FF25
:10300000C8A000FFC8A008FFC8A000FFC8A000FF1C
:10301000C8A008FFC8A008FFC8A008FFC8A008FFF4
:10302000F8F0D8FFF8FCF8FFF8FCF8FFF8FCF8FF20
:10303000F8FCF8FFF8FCF8FFF8FCF8FFF8FCF8FFE4
:10304000F8FCF8FFF8FCF8FFF8FCF8FFF8FCF8FFD4
:10305000F8FCF8FFF8FCF8FFF8FCF8FFF8FCF8FFC4
:10306000F8FCF8FFF8FCF8FFF8FCF8FFF8FCF8FFB4
:10307000F8FCF8FFD0AC20FFC8A008FFC8A000FFF4
:10308000C8A000FFC8A008FFC8A000FFC8A000FF9C
:10309000C8A008FFC8A000FFC8A008FFC8A000FF84
:1030A000C8A008FFC8A000FFC8A008FFC8A000FF74
:1030B000C8A008FFC8A000FFC8A008FFC8A000FF64
:1030C000C8A008FFC8A000FFC8A008FFC8A000FF54
:1030D000C8A000FFC8A008FFC8A008FFC8A000FF44
:1030E000C8A008FFF8F0D0FFF8FCF8FFF8FCF8FFE4
:1030F000F8FCF8FFF8FCF8FFF8FCF8FFF8FCF8FF24
:10310000F8FCF8FFF8FCF8FFF8FCF8FFF8FCF8FF13
:10311000F8FCF8FFF8FCF8FFF8FCF8FFF8FCF8FF03
:10312000F8FCF8FFF8FCF8FFF8FCF8FFF8FCF8FFF3
:10313000F8FCF8FFF8FCF8FFD0AC28FFC8A008FFA7
:10314000C8A000FFC8A008FFC8A008FFC8A000FFD3
:10315000C8A008FFC8A000FFC8A000FFC8A008FFC3
:10316000C8A000FFC8A008FFC8A008FFC8A000FFB3
:10317000C8A008FFC8A008FFC8A000FFC8A000FFA3
:10318000C8A008FFC8A000FFC8A008FFC8A008FF8B
:10319000C8A000FFC8A008FFC8A000FFC8A000FF8B
:1031A000C8A008FFC8A000FFC89C087DC8A0008276
:1031B000C8A008FFC8A008FFC8A000FFC8A008FF5B
:1031C000C8A008FFC8A000FFC8A008FFC8A008FF4B
:1031D000C8A000FFC8A008FFC8A000FFC8A008FF43
:1031E000C8A000FFC8A008FFC8A008FFC8A000FF33
:1031F000C8A000FFC8A008FFC8A008FFC8A000FF23
:10320000C8A008FFC8A008FFC8A000FFC8A000FF12
:10321000C8A008FFC8A000FFC8A000FFC8A008FF02
:10322000D8BC50FFF8FCF8FFF8FCF8FFF8FCF8FFFA
:10323000F8FCF8FFF8FCF8FFF8FCF8FFF8FCF8FFE2
:10324000F8FCF8FFF8FCF8FFF8FCF8FFF8FCF8FFD2
:10325000F8FCF8FFF8FCF8FFF8FCF8FFF8FCF8FFC2
:10326000F8FCF8FFF8FCF8FFF8FCF8FFF8FCF8FFB2
:10327000F8FCF8FFF0DCA8FFC8A000FFC8A008FF1A
:10328000C8A008FFC8A000FFC8A008FFC8A008FF8A
:10329000C8A000FFC8A008FFC8A000FFC8A008FF82
:1032A000C8A000FFC8A008FFC8A000FFC8A008FF72
:1032B000C8A000FFC8A008FFC8A000FFC8A008FF62
:1032C000C8A000FFC8A008FFC8A008FFC8A000FF52
:1032D000C8A008FFC8A000FFC8A000FFC8A008FF42
:1032E000E0C460FFF8FCF8FFF8FCF8FFF8FCF8FF1A
:1032F000F8FCF8FFF8FCF8FFF8FCF8FFF8FCF8FF22
:10330000F8FCF8FFF8FCF8FFF8FCF8FFF8FCF8FF11
:10331000F8FCF8FFF8FCF8FFF8FCF8FFF8FCF8FF01
:10332000F8FCF8FFF8FCF8FFF8FCF8FFF8FCF8FFF1
:10333000F8FCF8FFE8D898FFC8A000FFC8A000FF7D
:10334000C8A008FFC8A000FFC8A008FFC8A000FFD1
:10335000C8A008FFC8A008FFC8A000FFC8A008FFB9
:10336000C8A000FFC8A000FFC8A008FFC8A000FFB9
:10337000C8A000FFC8A008FFC8A000FFC8A008FFA1
:10338000C8A000FFC8A000FFC8A008FFC8A000FF99
:10339000C8A008FFC8A008FFC8A008FFC8A000FF79
:1033A000C8A000FFC8A008FFC89C007DC8A000827C
:1033B000C8A008FFC8A000FFC8A000FFC8A008FF61
:1033C000C8A000FFC8A000FFC8A008FFC8A000FF59
:1033D000C8A008FFC8A000FFC8A008FFC8A000FF41
:1033E000C8A008FFC8A000FFC8A008FFC8A008FF29
:1033F000C8A000FFC8A000FFC8A000FFC8A408FF25
:10340000C8A000FFC8A008FFC8A008FFC8A000FF10
:10341000C8A008FFC8A000FFC8A000FFC8A008FF00
:10342000C8A000FFF0E8C8FFF8FCF8FFF8FCF8FFC0
:10343000F8FCF8FFF8FCF8FFF8FCF8FFF8FCF8FFE0
:10344000F8FCF8FFF8FCF8FFF8FCF8FFF8FCF8FFD0
:10345000F8FCF8FFF8FCF8FFF8FCF8FFF8FCF8FFC0
:10346000F8FCF8FFF8FCF8FFF8FCF8FFF8FCF8FFB0
:10347000F8FCF8FFF8FCF8FFD0B030FFC8A008FF58
:10348000C8A000FFC8A000FFC8A008FFC8A000FF98
:10349000C8A008FFC8A000FFC8A008FFC8A000FF80
:1034A000C8A008FFC8A000FFC8A008FFC8A000FF70
:1034B000C8A008FFC8A000FFC8A008FFC8A000FF60
:1034C000C8A000FFC8A008FFC8A000FFC8A008FF50
:1034D000C8A008FFC8A000FFC8A008FFC8A008FF38
:1034E000F8F4E0FFF8FCF8FFF8FCF8FFF8FCF8FF50
:1034F000F8FCF8FFF8FCF8FFF8FCF8FFF8FCF8FF20
:10350000F8FCF8FFF8FCF8FFF8FCF8FFF8FCF8FF0F
:10351000F8FCF8FFF8FCF8FFF8FCF8FFF8FCF8FFFF
:10352000F8FCF8FFF8FCF8FFF8FCF8FFF8FCF8FFEF
:10353000F8F8F0FFD0A818FFC8A008FFC8A000FF47
:10354000C89C08FFC8A000FFC8A000FFC8A008FFD3
:10355000C8A000FFC8A008FFC8A000FFC8A008FFBF
:10356000C8A008FFC8A000FFC8A008FFC8A008FFA7
:10357000C8A000FFC8A008FFC8A008FFC8A000FF9F
:10358000C8A008FFC8A008FFC8A000FFC8A000FF8F
:10359000C8A000FFC8A008FFC8A000FFC89C08FF83
:1035A000C8A008FFC8A000FFC89C087DC8A0008272
:1035B000C8A008FFC8A000FFC8A008FFC8A008FF57
:1035C000C8A000FFC8A008FFC8A000FFC8A000FF57
:1035D000C8A008FFC8A008FFC8A000FFC8A008FF37
:1035E000C8A000FFC8A000FFC8A000FFC8A008FF37
:1035F000C8A008FFC8A000FFC8A008FFC8A000FF1F
:10360000C8A000FFC8A000FFC8A008FFC8A000FF16
:10361000C8A008FFC8A008FFC8A000FFC8A008FFF6
:10362000C8A000FFD0B840FFF8FCF8FFF8FCF8FF96
:10363000F8FCF8FFF8FCF8FFF8FCF8FFF8FCF8FFDE
:10364000F8FCF8FFF8FCF8FFF8FCF8FFF8FCF8FFCE
:10365000F8FCF8FFF8FCF8FFF8FCF8FFF8FCF8FFBE
:10366000F8FCF8FFF8FCF8FFF8FCF8FFF8FCF8FFAE
:10367000F8FCF8FFF8FCF8FFF0E4B8FFC8A000FF82
:10368000C8A008FFC8A008FFC8A000FFC8A000FF8E
:10369000C8A008FFC8A000FFC8A000FFC8A008FF7E
:1036A000C8A000FFC8A008FFC8A000FFC8A008FF6E
:1036B000C8A000FFC8A008FFC8A000FFC8A008FF5E
:1036C000C8A008FFC8A000FFC8A000FFC89C00FF5A
:1036D000C8A008FFC8A000FFC8A008FFE0C870FF8E
:1036E000F8FCF8FFF8FCF8FFF8FCF8FFF8FCF8FF2E
:1036F000F8FCF8FFF8FCF8FFF8FCF8FFF8FCF8FF1E
:10370000F8FCF8FFF8FCF8FFF8FCF8FFF8FCF8FF0D
:10371000F8FCF8FFF8FCF8FFF8FCF8FFF8FCF8FFFD
:10372000F8FCF8FFF8FCF8FFF8FCF8FFF8FCF8FFED
:10373000E8D080FFC8A008FFC8A000FFC8A008FF0D
:10374000C89C08FFC0A000FFC8A008FFC89C08FFD5
:10375000C89C00FFC8A000FFC8A008FFC8A000FFC9
:10376000C8A000FFC8A008FFC8A000FFC8A000FFB5
:10377000C8A008FFC8A000FFC8A000FFC89C08FFA1
:10378000C8A000FFC8A008FFC89C08FFC8A000FF91
:10379000C8A008FFC89C00FFC8A000FFC8A008FF81
:1037A000C8A000FFC8A000FFC09C087DC8A0008280
:1037B000C8A008FFC89C00FFC8A008FFC8A000FF61
:1037C000C8A008FFC89C08FFC8A000FFC8A008FF49
:1037D000C09C00FFC8A000FFC8A008FFC89C08FF4D
:1037E000C8A000FFC89C08FFC8A008FFC8A000FF31
:1037F000C8A000FFC8A008FFC8A008FFC8A008FF15
:10380000C8A000FFC8A008FFC89C00FFC8A000FF18
:10381000C09C08FFC8A000FFC8A008FFC89C00FF0C
:10382000C8A008FFC8A000FFF0E0B0FFF8FCF8FF58
:10383000F8FCF8FFF8FCF8FFF8FCF8FFF8FCF8FFDC
:10384000F8FCF8FFF8FCF8FFF8FCF8FFF8FCF8FFCC
:10385000F8FCF8FFF8FCF8FFF8FCF8FFF8FCF8FFBC
:10386000F8FCF8FFF8FCF8FFF8FCF8FFF8FCF8FFAC
:10387000F8FCF8FFF8FCF8FFF8FCF8FFD8B840FFB8
:10388000C8A000FFC8A008FFC8A000FFC8A008FF8C
:10389000C8A008FFC8A000FFC8A008FFC8A008FF74
:1038A000C8A000FFC8A000FFC8A008FFC8A000FF74
:1038B000C8A008FFC8A000FFC8A000FFC8A008FF5C
:1038C000C8A008FFC8A000FFC89C08FFC8A008FF48
:1038D000C8A000FFC09C08FFC8A410FFF8F8E8FFCC
:1038E000F8FCF8FFF8FCF8FFF8FCF8FFF8FCF8FF2C
:1038F000F8FCF8FFF8FCF8FFF8FCF8FFF8FCF8FF1C
:10390000F8FCF8FFF8FCF8FFF8FCF8FFF8FCF8FF0B
:10391000F8FCF8FFF8FCF8FFF8FCF8FFF8FCF8FFFB
:10392000F8FCF8FFF8FCF8FFF8FCF8FFF8F8E8FFFF
:10393000C8A410FFC8A008FFC0A000FFC89C00FFDB
:10394000C8A008FFC8A000FFC8A008FFC0A000FFD3
:10395000C8A008FFC89C08FFC8A000FFC09C08FFC3
:10396000C8A008FFC89C00FFC8A008FFC8A000FFAF
:10397000C89C08FFC8A008FFC8A000FFC8A008FF97
:10398000C89C00FFC8A000FFC09C08FFC8A008FF9B
:10399000C8A008FFC09C00FFC8A008FFC0A008FF87
:1039A000C89C00FFC8A008FFC09C007DC8A0008282
:1039B000C89C08FFC0A000FFC8A000FFC89C08FF6B
:1039C000C09C00FFC89C00FFC8A008FFC8A008FF5B
:1039D000C8A000FFC8A000FFC8A008FFC09C00FF4F
:1039E000C8A000FFC0A008FFC89C08FFC8A000FF37
:1039F000C8A000FFC89C08FFC8A000FFC8A000FF27
:103A0000C89C08FFC89C08FFC89C08FFC09C00FF1A
:103A1000C89C08FFC8A000FFC8A000FFC8A008FFFE
:103A2000C8A008FFC8A000FFD0B030FFF8FCF8FF26
:103A3000F8FCF8FFF8FCF8FFF8FCF8FFF8FCF8FFDA
:103A4000F8FCF8FFF8FCF8FFF8FCF8FFF8FCF8FFCA
:103A5000F8FCF8FFF8FCF8FFF8FCF8FFF8FCF8FFBA
:103A6000F8FCF8FFF8FCF8FFF8FCF8FFF8FCF8FFAA
:103A7000F8FCF8FFF8FCF8FFF8FCF8FFF0E8C8FFE6
:103A8000C89C00FFC89C00FFC89C08FFC8A000FF9E
:103A9000C8A008FFC8A000FFC8A008FFC8A008FF72
:103AA000C89C00FFC8A008FFC8A008FFC89C00FF72
:103AB000C8A008FFC8A008FFC89C00FFC8A000FF5E
:103AC000C8A008FFC8A000FFC8A008FFC8A000FF4A
:103AD000C0A000FFC8A008FFE0D080FFF8FCF8FFFE
:103AE000F8FCF8FFF8FCF8FFF8FCF8FFF8FCF8FF2A
:103AF000F8FCF8FFF8FCF8FFF8FCF8FFF8FCF8FF1A
:103B0000F8FCF8FFF8FCF8FFF8FCF8FFF8FCF8FF09
:103B1000F8FCF8FFF8FCF8FFF8FCF8FFF8FCF8FFF9
:103B2000F8FCF8FFF8FCF8FFF8FCF8FFE0C870FFBD
:103B3000C8A008FFC89C00FFC89C08FFC0A008FFE1
:103B4000C89C00FFC8A008FFC09C00FFC89C00FFE5
:103B5000C8A008FFC8A000FFC09C00FFC89C08FFC9
:103B6000C8A000FFC09C08FFC89C00FFC89C08FFBD
:103B7000C09C00FFC89C00FFC09C08FFC09C08FFC1
:103B8000C8A000FFC89C00FFC09C08FFC89C00FFA5
:103B9000C89C00FFC8A008FFC89C00FFC8A000FF89
:103BA000C8A008FFC8A008FFC09C007DC8A0008274
:103BB000C8A008FFC8A008FFC8A000FFC09C08FF5D
:103BC000C8A000FFC8A000FFC8A008FFC8A008FF49
:103BD000C8A000FFC8A008FFC8A008FFC8A000FF39
:103BE000C8A008FFC8A000FFC8A000FFC0A008FF31
:103BF000C8A008FFC89C00FFC0A008FFC8A000FF25
:103C0000C8A000FFC09C08FFC8A000FFC8A008FF14
:103C1000C8A008FFC8A000FFC8A008FFC8A008FFF0
:103C2000C8A000FFC8A008FFC8A008FFE8DCA0FFEC
:103C3000F8FCF8FFF8FCF8FFF8FCF8FFF8FCF8FFD8
:103C4000F8FCF8FFF8FCF8FFF8FCF8FFF8FCF8FFC8
:103C5000F8FCF8FFF8FCF8FFF8FCF8FFF8FCF8FFB8
:103C6000F8FCF8FFF8FCF8FFF8FCF8FFF8FCF8FFA8
:103C7000F8FCF8FFF8FCF8FFF8FCF8FFF8FCF8FF98
:103C8000D8BC50FFC8A008FFC0A008FFC89C00FF18
:103C9000C89C00FFC8A008FFC8A000FFC8A000FF84
:103CA000C8A008FFC8A000FFC0A000FFC89C08FF74
:103CB000C8A000FFC0A008FFC8A008FFC89C00FF64
:103CC000C0A000FFC89C08FFC8A000FFC09C08FF60
:103CD000C8A008FFD0A818FFF8F8F0FFF8FCF8FF1C
:103CE000F8FCF8FFF8FCF8FFF8FCF8FFF8FCF8FF28
:103CF000F8FCF8FFF8FCF8FFF8FCF8FFF8FCF8FF18
:103D0000F8FCF8FFF8FCF8FFF8FCF8FFF8FCF8FF07
:103D1000F8FCF8FFF8FCF8FFF8FCF8FFF8FCF8FFF7
:103D2000F8FCF8FFF8FCF8FFF8F0E0FFC8A008FF87
:103D3000C8A008FFC89C00FFC8A000FFC8A008FFDB
:103D4000C09C00FFC8A008FFC89C08FFC89C00FFDB
:103D5000C8A008FFC0A000FFC89C08FFC8A000FFC3
:103D6000C8A008FFC8A000FFC09C08FFC8A008FFAB
:103D7000C8A000FFC8A000FFC89C08FFC8A000FFA3
:103D8000C8A008FFC89C08FFC8A000FFC0A000FF93
:103D9000C8A008FFC8A008FFC0A000FFC89C00FF83
:103DA000C89C08FFC8A000FFC0A0087DC8A0008272
:103DB000C8A008FFC8A000FFC8A008FFC8A008FF4F
:103DC000C8A008FFC8A000FFC8A000FFC8A008FF47
:103DD000C8A000FFC0A008FFC89C00FFC89C08FF47
:103DE000C0A008FFC8A000FFC89C08FFC8A008FF2B
:103DF000C0A000FFC89C08FFC8A008FFC0A000FF2B
:103E0000C89C08FFC8A000FFC0A000FFC89C08FF16
:103E1000C8A000FFC8A000FFC0A008FFC8A000FF06
:103E2000C8A000FFC8A008FFC8A000FFD0A820FFBE
:103E3000F8FCF8FFF8FCF8FFF8FCF8FFF8FCF8FFD6
:103E4000F8FCF8FFF8FCF8FFF8FCF8FFF8FCF8FFC6
:103E5000F8FCF8FFF8FCF8FFF8FCF8FFF8FCF8FFB6
:103E6000F8FCF8FFF8FCF8FFF8FCF8FFF8FCF8FFA6
:103E7000F8FCF8FFF8FCF8FFF8FCF8FFF8FCF8FF96
:103E8000F8F0D8FFC8A008FFC0A000FFC89C08FF3A
:103E9000C8A008FFC8A000FFC8A008FFC8A000FF76
:103EA000C8A008FFC09C00FFC8A008FFC8A000FF72
:103EB000C8A000FFC8A008FFC8A000FFC8A008FF56
:103EC000C09C08FFC8A000FFC8A008FFC8A000FF52
:103ED000C89C08FFE8D490FFF8FCF8FFF8FCF8FF56
:103EE000F8FCF8FFF8FCF8FFF8FCF8FFF8FCF8FF26
:103EF000F8FCF8FFF8FCF8FFF8FCF8FFF8FCF8FF16
:103F0000F8FCF8FFF8FCF8FFF8FCF8FFF8FCF8FF05
:103F1000F8FCF8FFF8FCF8FFF8FCF8FFF8FCF8FFF5
:103F2000F8FCF8FFF8FCF8FFD8C060FFC8A000FF5D
:103F3000C89C08FFC0A008FFC89C00FFC89C00FFE9
:103F4000C8A008FFC0A000FFC0A000FFC89C08FFD9
:103F5000C8A000FFC89C08FFC8A008FFC0A000FFC1
:103F6000C09C00FFC89C08FFC8A000FFC0A008FFBD
:103F7000C89C08FFC8A000FFC0A008FFC89C00FFA5
:103F8000C8A000FFC8A008FFC8A008FFC8A000FF85
:103F9000C89C08FFC09C08FFC8A000FFC8A008FF7D
:103FA000C8A008FFC0A000FFC89C007DC8A0008278
:103FB000C8A000FFC8A008FFC09C00FFC09C00FF75
:103FC000C89C08FFC09C08FFC09C00FFC8A000FF61
:103FD000C8A008FFC09C00FFC8A000FFC09C08FF4D
:103FE000C8A000FFC09C00FFC8A008FFC8A000FF39
:103FF000C8A000FFC89C08FFC8A000FFC89C08FF1D
:10400000C09C08FFC8A000FFC09C08FFC09C08FF20
:10401000C89C00FFC8A008FFC09C08FFC89C00FF08
:10402000C8A008FFC8A000FFC0A008FFC89C00FFF0
:10403000E8D490FFF8FCF8FFF8FCF8FFF8FCF8FF74
:10404000F8FCF8FFF8FCF8FFF8FCF8FFF8FCF8FFC4
:10405000F8FCF8FFF8FCF8FFF8FCF8FFF8FCF8FFB4
:10406000F8FCF8FFF8FCF8FFF8FCF8FFF8FCF8FFA4
:10407000F8FCF8FFF8FCF8FFF8FCF8FFF8FCF8FF94
:10408000F8FCF8FFD8C460FFC89C00FFC8A008FF78
:10409000C8A000FFC0A008FFC09C00FFC09C08FF94
:1040A000C89C00FFC8A008FFC8A008FFC89C00FF6C
:1040B000C09C08FFC8A000FFC89C00FFC8A008FF64
:1040C000C8A000FFC89C08FFC8A000FFC0A000FF58
:1040D000C8AC28FFF8FCF8FFF8FCF8FFF8FCF8FF84
:1040E000F8FCF8FFF8FCF8FFF8FCF8FFF8FCF8FF24
:1040F000F8FCF8FFF8FCF8FFF8FCF8FFF8FCF8FF14
:10410000F8FCF8FFF8FCF8FFF8FCF8FFF8FCF8FF03
:10411000F8FCF8FFF8FCF8FFF8FCF8FFF8FCF8FFF3
:10412000F8FCF8FFF8ECD0FFC8A008FFC8A000FF1B
:10413000C09C00FFC8A008FFC0A008FFC09C00FFF3
:10414000C89C08FFC8A008FFC09C00FFC8A008FFCB
:10415000C0A000FFC09C00FFC89C08FFC8A008FFCB
:10416000C09C00FFC89C08FFC8A000FFC09C00FFC7
:10417000C89C08FFC09C00FFC8A008FFC0A008FFA3
:10418000C0A000FFC09C00FFC09C08FFC8A000FFAB
:10419000C8A000FFC8A008FFC0A000FFC09C00FF8F
:1041A000C89C08FFC89C08FFC09C007DC8A0008276
:1041B000C8A008FFC8A008FFC8A000FFC89C00FF57
:1041C000C8A008FFC0A000FFC89C08FFC8A008FF47
:1041D000C09C00FFC89C08FFC8A008FFC8A000FF43
:1041E000C89C08FFC8A000FFC0A008FFC09C00FF3B
:1041F000C89C08FFC0A000FFC89C00FFC0A008FF2B
:10420000C89C00FFC8A000FFC8A008FFC09C00FF1A
:10421000C8A000FFC8A008FFC89C00FFC09C08FF02
:10422000C89C00FFC89C08FFC09C08FFC0A000FFFE
:10423000C8A418FFF8F8F0FFF8FCF8FFF8FCF8FF46
:10424000F8FCF8FFF8FCF8FFF8FCF8FFF8FCF8FFC2
:10425000F8FCF8FFF8FCF8FFF8FCF8FFF8FCF8FFB2
:10426000F8FCF8FFF8FCF8FFF8FCF8FFF8FCF8FFA2
:10427000F8FCF8FFF8FCF8FFF8FCF8FFF8FCF8FF92
:10428000F8FCF8FFF8F4E0FFC8A010FFC8A000FF9A
:10429000C8A000FFC8A008FFC89C08FFC0A000FF7E
:1042A000C89C00FFC09C08FFC0A000FFC89C08FF7E
:1042B000C8A008FFC09C00FFC89C08FFC0A000FF6A
:1042C000C89C08FFC8A000FFC8A008FFC89C08FF42
:1042D000E8DCA8FFF8FCF8FFF8FCF8FFF8FCF8FFB2
:1042E000F8FCF8FFF8FCF8FFF8FCF8FFF8FCF8FF22
:1042F000F8FCF8FFF8FCF8FFF8FCF8FFF8FCF8FF12
:10430000F8FCF8FFF8FCF8FFF8FCF8FFF8FCF8FF01
:10431000F8FCF8FFF8FCF8FFF8FCF8FFF8FCF8FFF1
:10432000F8FCF8FFD8B848FFC8A008FFC09C08FFF9
:10433000C89C00FFC8A000FFC8A008FFC09C00FFE9
:10434000C8A000FFC89C08FFC89C08FFC8A000FFC9
:10435000C09C08FFC8A000FFC8A000FFC89C08FFC1
:10436000C0A008FFC8A000FFC89C08FFC0A000FFB5
:10437000C8A000FFC8A008FFC89C00FFC89C08FF99
:10438000C89C08FFC8A000FFC09C08FFC89C08FF8D
:10439000C09C00FFC89C08FFC8A008FFC8A000FF81
:1043A000C8A000FFC8A008FFC0A0087DC89C00826C
:1043B000C89C08FFC09C00FFC8A008FFC89C08FF5D
:1043C000C0A000FFC8A000FFC09C08FFC09C00FF69
:1043D000C09C00FFC89C08FFC09C00FFC0A008FF55
:1043E000C8A000FFC89C08FFC89C00FFC8A008FF29
:1043F000C09C08FFC8A000FFC09C08FFC09C08FF2D
:10440000C09C00FFC89C08FFC89C08FFC8A000FF14
:10441000C8A008FFC0A000FFC0A000FFC8A008FF00
:10442000C0A000FFC89C00FFC8A008FFC8A000FFF4
:10443000C89C08FFE0CC80FFF8FCF8FFF8FCF8FF10
:10444000F8FCF8FFF8FCF8FFF8FCF8FFF8FCF8FFC0
:10445000F8FCF8FFF8FCF8FFF8FCF8FFF8FCF8FFB0
:10446000F8FCF8FFF8FCF8FFF8FCF8FFF8FCF8FFA0
:10447000F8FCF8FFF8FCF8FFF8FCF8FFF8FCF8FF90
:10448000F8FCF8FFF8FCF8FFE0C870FFC0A008FFD8
:10449000C8A000FFC8A008FFC09C00FFC89C08FF80
:1044A000C09C08FFC89C00FFC09C00FFC09C08FF88
:1044B000C89C00FFC8A008FFC8A008FFC09C00FF60
:1044C000C89C08FFC0A000FFC09C00FFD0B030FF18
:1044D000F8FCF8FFF8FCF8FFF8FCF8FFF8FCF8FF30
:1044E000F8FCF8FFF8FCF8FFF8FCF8FFF8FCF8FF20
:1044F000F8FCF8FFF8FCF8FFF8FCF8FFF8FCF8FF10
:10450000F8FCF8FFF8FCF8FFF8FCF8FFF8FCF8FFFF
:10451000F8FCF8FFF8FCF8FFF8FCF8FFF8FCF8FFEF
:10452000F0E8C0FFC89C00FFC09C00FFC09C08FFD3
:10453000C8A008FFC09C00FFC09C08FFC8A008FFDF
:10454000C09C00FFC09C00FFC8A008FFC89C00FFE3
:10455000C09C08FFC89C08FFC09C00FFC09C00FFD7
:10456000C89C08FFC09C00FFC09C08FFC89C08FFB7
:10457000C09C00FFC8A008FFC09C00FFC09C00FFBB
:10458000C89C08FFC89C00FFC8A000FFC0A008FF8F
:10459000C09C00FFC89C00FFC09C08FFC09C08FF97
:1045A000C09C00FFC89C00FFC8A0087DC09C008282
:1045B000C09C08FFC09C00FFC09C00FFC09C08FF7F
:1045C000C89C08FFC8A000FFC8A008FFC8A008FF3B
:1045D000C8A000FFC89C08FFC09C00FFC09C00FF53
:1045E000C09C08FFC8A000FFC8A008FFC89C00FF2F
:1045F000C8A000FFC8A008FFC8A000FFC89C00FF1B
:10460000C09C08FFC09C00FFC89C00FFC8A008FF1A
:10461000C89C08FFC09C00FFC89C08FFC8A008FFFA
:10462000C0A000FFC89C08FFC09C00FFC09C00FF0A
:10463000C89C08FFC8A010FFF8F4E8FFF8FCF8FFDA
:10464000F8FCF8FFF8FCF8FFF8FCF8FFF8FCF8FFBE
:10465000F8FCF8FFF8FCF8FFF8FCF8FFF8FCF8FFAE
:10466000F8FCF8FFF8FCF8FFF8FCF8FFF8FCF8FF9E
:10467000F8FCF8FFF8FCF8FFF8FCF8FFF8FCF8FF8E
:10468000F8FCF8FFF8FCF8FFF0ECD0FFC89C00FF46
:10469000C09C08FFC09C00FFC89C00FFC09C08FF96
:1046A000C8A008FFC89C00FFC09C08FFC8A000FF6E
:1046B000C09C00FFC09C08FFC09C00FFC8A000FF7A
:1046C000C8A008FFC89C08FFC8A000FFF0E4B8FF1E
:1046D000F8FCF8FFF8FCF8FFF8FCF8FFF8FCF8FF2E
:1046E000F8FCF8FFF8FCF8FFF8FCF8FFF8FCF8FF1E
:1046F000F8FCF8FFF8FCF8FFF8FCF8FFF8FCF8FF0E
:10470000F8FCF8FFF8FCF8FFF8FCF8FFF8FCF8FFFD
:10471000F8FCF8FFF8FCF8FFF8FCF8FFF8FCF8FFED
:10472000D0B438FFC8A008FFC09C00FFC89C00FFA1
:10473000C8A008FFC09C00FFC89C00FFC8A008FFDD
:10474000C09C08FFC89C00FFC0A000FFC09C08FFE1
:10475000C89C00FFC8A008FFC09C08FFC09C00FFC9
:10476000C89C00FFC09C08FFC89C00FFC09C08FFBD
:10477000C8A008FFC09C00FFC09C08FFC0A000FFAD
:10478000C09C08FFC09C08FFC8A000FFC89C08FF91
:10479000C09C08FFC8A000FFC89C00FFC8A008FF7D
:1047A000C8A008FFC09C00FFC09C007DC89C008280
:1047B000C89C08FFC8A008FFC89C00FFC09C00FF61
:1047C000C89C08FFC09C00FFC8A000FFC8A008FF4D
:1047D000C8A008FFC8A000FFC89C08FFC89C08FF2D
:1047E000C09C00FFC09C08FFC09C08FFC09C00FF4D
:1047F000C8A008FFC09C08FFC89C00FFC8A008FF15
:10480000C8A008FFC09C00FFC09C00FFC0A008FF1C
:10481000C8A000FFC89C08FFC09C00FFC09C00FF10
:10482000C89C08FFC09C08FFC89C00FFC09C08FFF4
:10483000C8A000FFC8A000FFE0C868FFF8FCF8FFB0
:10484000F8FCF8FFF8FCF8FFF8FCF8FFF8FCF8FFBC
:10485000F8FCF8FFF8FCF8FFF8FCF8FFF8FCF8FFAC
:10486000F8FCF8FFF8FCF8FFF8FCF8FFF8FCF8FF9C
:10487000F8FCF8FFF8FCF8FFF8FCF8FFF8FCF8FF8C
:10488000F8FCF8FFF8FCF8FFF8F0D8FFC8A008FF24
:10489000C8A000FFC09C08FFC89C00FFC0A000FF8C
:1048A000C09C08FFC89C00FFC0A008FFC89C08FF70
:1048B000C89C00FFC09C08FFC89C00FFC09C08FF6C
:1048C000C09C00FFC8A008FFD0B440FFF8FCF8FF70
:1048D000F8FCF8FFF8FCF8FFF8FCF8FFF8FCF8FF2C
:1048E000F8FCF8FFF8FCF8FFF8FCF8FFF8FCF8FF1C
:1048F000F8FCF8FFF8FCF8FFF8FCF8FFF8FCF8FF0C
:10490000F8FCF8FFF8FCF8FFF8FCF8FFF8FCF8FFFB
:10491000F8FCF8FFF8FCF8FFF8FCF8FFF0E0B0FF57
:10492000C89C08FFC09C08FFC89C08FFC8A000FFE7
:10493000C09C08FFC89C08FFC89C00FFC09C00FFEB
:10494000C09C08FFC89C08FFC89C00FFC09C08FFD3
:10495000C8A000FFC09C00FFC89C08FFC8A008FFBB
:10496000C0A000FFC89C08FFC8A000FFC8A000FFAF
:10497000C8A008FFC89C00FFC09C08FFC89C08FF97
:10498000C89C00FFC09C00FFC09C08FFC89C00FFA3
:10499000C09C08FFC0A008FFC89C00FFC09C00FF8F
:1049A000C89C08FFC09C08FFC8A0007DC09C008276
:1049B000C09C08FFC89C00FFC0A008FFC89C08FF5F
:1049C000C09C00FFC89C08FFC8A000FFC8A000FF53
:1049D000C8A008FFC09C00FFC09C08FFC8A000FF43
:1049E000C89C00FFC89C08FFC09C00FFC89C00FF3B
:1049F000C09C08FFC8A000FFC89C00FFC0A008FF23
:104A0000C8A000FFC89C08FFC8A008FFC09C00FF0A
:104A1000C89C08FFC8A000FFC09C08FFC8A000FFFA
:104A2000C8A008FFC09C00FFC89C08FFC0A008FFEA
:104A3000C8A000FFC8A000FFC8A008FFF8F0D8FF7A
:104A4000F8FCF8FFF8FCF8FFF8FCF8FFF8FCF8FFBA
:104A5000F8FCF8FFF8FCF8FFF8FCF8FFF8FCF8FFAA
:104A6000F8FCF8FFF8FCF8FFF8FCF8FFF8FCF8FF9A
:104A7000F8FCF8FFF8FCF8FFF8FCF8FFF8FCF8FF8A
:104A8000F8FCF8FFF8FCF8FFE8D898FFC8A000FF92
:104A9000C89C08FFC8A008FFC8A000FFC09C08FF72
:104AA000C89C00FFC09C00FFC09C08FFC89C00FF82
:104AB000C0A008FFC89C00FFC8A008FFC09C08FF5A
:104AC000C09C00FFC89C08FFF0E8C8FFF8FCF8FF96
:104AD000F8FCF8FFF8FCF8FFF8FCF8FFF8FCF8FF2A
:104AE000F8FCF8FFF8FCF8FFF8FCF8FFF8FCF8FF1A
:104AF000F8FCF8FFF8FCF8FFF8FCF8FFF8FCF8FF0A
:104B0000F8FCF8FFF8FCF8FFF8FCF8FFF8FCF8FFF9
:104B1000F8FCF8FFF8FCF8FFF8FCF8FFD0AC28FF31
:104B2000C09C00FFC09C00FFC89C08FFC09C00FF09
:104B3000C09C00FFC89C08FFC89C08FFC0A000FFE5
:104B4000C89C00FFC09C08FFC89C08FFC0A000FFD5
:104B5000C09C08FFC89C00FFC09C00FFC09C08FFD1
:104B6000C89C08FFC09C00FFC8A008FFC8A000FFA9
:104B7000C8A000FFC09C08FFC89C00FFC8A000FFA1
:104B8000C09C08FFC8A000FFC89C08FFC09C00FF95
:104B9000C8A000FFC89C08FFC09C00FFC8A008FF79
:104BA000C8A000FFC89C00FFC09C087DC09C00827C
:104BB000C89C00FFC89C08FFC09C00FFC09C00FF71
:104BC000C09C08FFC09C08FFC09C00FFC8A008FF55
:104BD000C09C00FFC09C08FFC09C00FFC09C08FF59
:104BE000C8A008FFC09C00FFC8A008FFC09C08FF29
:104BF000C09C00FFC09C08FFC09C08FFC09C00FF39
:104C0000C89C00FFC8A008FFC0A000FFC89C08FF08
:104C1000C8A000FFC09C08FFC89C08FFC8A000FFF8
:104C2000C09C00FFC89C08FFC09C00FFC09C08FF00
:104C3000C8A008FFC8A008FFC8A008FFD8BC58FF3C
:104C4000F8FCF8FFF8FCF8FFF8FCF8FFF8FCF8FFB8
:104C5000F8FCF8FFF8FCF8FFF8FCF8FFF8FCF8FFA8
:104C6000F8FCF8FFF8FCF8FFF8FCF8FFF8FCF8FF98
:104C7000F8FCF8FFF8FCF8FFF8FCF8FFF8FCF8FF88
:104C8000F8FCF8FFF8FCF8FFC8A820FFC09C00FF64
:104C9000C09C00FFC8A008FFC09C08FFC8A000FF80
:104CA000C89C08FFC89C08FFC0A000FFC09C00FF74
:104CB000C09C08FFC89C00FFC09C00FFC09C08FF70
:104CC000C89C00FFD8BC50FFF8FCF8FFF8FCF8FFC8
:104CD000F8FCF8FFF8FCF8FFF8FCF8FFF8FCF8FF28
:104CE000F8FCF8FFF8FCF8FFF8FCF8FFF8FCF8FF18
:104CF000F8FCF8FFF8FCF8FFF8FCF8FFF8FCF8FF08
:104D0000F8FCF8FFF8FCF8FFF8FCF8FFF8FCF8FFF7
:104D1000F8FCF8FFF8FCF8FFE8D898FFC09C08FF03
:104D2000C09C00FFC89C08FFC8A000FFC09C08FFF3
:104D3000C09C00FFC8A000FFC09C08FFC09C08FFEB
:104D4000C8A000FFC09C00FFC09C08FFC89C00FFDB
:104D5000C09C08FFC09C08FFC09C00FFC8A000FFCB
:104D6000C89C08FFC09C00FFC8A008FFC8A008FF9F
:104D7000C8A000FFC09C08FFC09C08FFC89C00FFA3
:104D8000C09C08FFC8A008FFC09C00FFC09C08FF93
:104D9000C89C00FFC89C08FFC09C08FFC09C00FF87
:104DA000C09C08FFC09C00FFC0A0087DC89C00827A
:104DB000C8A008FFC8A408FFC8A000FFC89C00FF47
:104DC000C8A008FFC09C00FFC09C08FFC89C08FF4B
:104DD000C09C00FFC89C00FFC89C08FFC09C00FF4F
:104DE000C8A000FFC8A008FFC8A000FFC8A000FF1F
:104DF000C89C08FFC09C00FFC09C08FFC89C00FF27
:104E0000C09C08FFC09C00FFC89C08FFC8A000FF12
:104E1000C09C00FFC0A008FFC89C00FFC09C08FF0A
:104E2000C09C08FFC89C00FFC09C00FFC09C00FF06
:104E3000C89C00FFC09C00FFC0A008FFC09C08FFEA
:104E4000F0ECC8FFF8FCF8FFF8FCF8FFF8FCF8FFFE
:104E5000F8FCF8FFF8FCF8FFF8FCF8FFF8FCF8FFA6
:104E6000F8FCF8FFF8FCF8FFF8FCF8FFF8FCF8FF96
:104E7000F8FCF8FFF8FCF8FFF8FCF8FFF8FCF8FF86
:104E8000F8FCF8FFE8D488FFC89C08FFC09C08FF26
:104E9000C09C00FFC89C00FFC89C08FFC09C00FF8E
:104EA000C09C08FFC8A008FFC89C00FFC09C08FF6A
:104EB000C09C08FFC09C00FFC89C08FFC09C08FF66
:104EC000C89C08FFF8F0D8FFF8FCF8FFF8FCF8FFE2
:104ED000F8FCF8FFF8FCF8FFF8FCF8FFF8FCF8FF26
:104EE000F8FCF8FFF8FCF8FFF8FCF8FFF8FCF8FF16
:104EF000F8FCF8FFF8FCF8FFF8FCF8FFF8FCF8FF06
:104F0000F8FCF8FFF8FCF8FFF8FCF8FFF8FCF8FFF5
:104F1000F8FCF8FFF8FCF8FFC8A420FFC89C00FFCD
:104F2000C89C08FFC89C08FFC0A000FFC09C08FFE9
:104F3000C89C08FFC09C00FFC09C00FFC89C08FFE5
:104F4000C89C08FFC09C00FFC09C00FFC89C08FFD5
:104F5000C89C00FFC09C08FFC09C08FFC89C00FFC5
:104F6000C09C00FFC09C08FFC8A000FFC89C08FFB1
:104F7000C0A000FFC09C00FFC89C08FFC8A000FFA5
:104F8000C8A000FFC8A008FFC09C00FFC89C08FF85
:104F9000C0A000FFC09C00FFC89C08FFC89C00FF89
:104FA000C8A008FFC09C08FFC89C007DC09C008270
:104FB000C8A008FFC8A008FFC8A000FFC8A008FF3D
:104FC000C8A008FFC8A000FFC8A000FFC09C08FF41
:104FD000C09C08FFC89C00FFC89C08FFC09C08FF3D
:104FE000C8A000FFC8A008FFC8A000FFC8A008FF15
:104FF000C8A000FFC89C00FFC89C08FFC8A008FF0D
:10500000C8A000FFC8A008FFC09C08FFC09C00FF0C
:10501000C89C08FFC89C00FFC09C00FFC8A008FFF8
:10502000C89C08FFC09C00FFC89C08FFC89C08FFE4
:10503000C09C00FFC09C00FFC89C00FFC09C00FFFC
:10504000D0B848FFF8FCF8FFF8FCF8FFF8FCF8FFD0
:10505000F8FCF8FFF8FCF8FFF8FCF8FFF8FCF8FFA4
:10506000F8FCF8FFF8FCF8FFF8FCF8FFF8FCF8FF94
:10507000F8FCF8FFF8FCF8FFF8FCF8FFF8FCF8FF84
:10508000F8F8F0FFC8A818FFC8A000FFC09C08FFF0
:10509000C09C00FFC09C08FFC09C00FFC89C00FF94
:1050A000C8A000FFC09C08FFC89C00FFC8A000FF6C
:1050B000C89C08FFC09C00FFC09C00FFC09C08FF6C
:1050C000D8C460FFF8FCF8FFF8FCF8FFF8FCF8FF24
:1050D000F8FCF8FFF8FCF8FFF8FCF8FFF8FCF8FF24
:1050E000F8FCF8FFF8FCF8FFF8FCF8FFF8FCF8FF14
:1050F000F8FCF8FFF8FCF8FFF8FCF8FFF8FCF8FF04
:10510000F8FCF8FFF8FCF8FFF8FCF8FFF8FCF8FFF3
:10511000F8FCF8FFE8D088FFC09C00FFC09C08FFA7
:10512000C8A000FFC09C00FFC09C08FFC89C00FFF7
:10513000C89C08FFC09C08FFC09C00FFC89C00FFE3
:10514000C09C08FFC09C08FFC8A000FFC09C08FFCF
:10515000C09C00FFC09C00FFC09C08FFC09C08FFD3
:10516000C09C00FFC09C08FFC09C00FFC09C08FFC3
:10517000C09C08FFC09C00FFC89C08FFC8A008FF97
:10518000C8A000FFC8A000FFC09C08FFC09C08FF8B
:10519000C89C00FFC09C08FFC09C00FFC8A000FF87
:1051A000C09C08FFC09C00FFC09C007DC09C00828A
:1051B000C8A000FFC8A008FFC8A000FFC8A008FF43
:1051C000C8A000FFC8A008FFC8A000FFC09C00FF47
:1051D000C09C08FFC89C00FFC0A000FFC8A008FF3B
:1051E000C8A008FFC8A000FFC8A008FFC8A008FF0B
:1051F000C0A000FFC09C08FFC8A000FFC8A000FF1F
:10520000C8A008FFC8A000FFC09C00FFC8A008FFFE
:10521000C09C08FFC89C00FFC8A008FFC09C00FFFE
:10522000C09C00FFC09C08FFC8A008FFC89C08FFE6
:10523000C8A008FFC09C08FFC09C08FFC89C00FFD6
:10524000C09C00FFF0E4B8FFF8FCF8FFF8FCF8FFA2
:10525000F8FCF8FFF8FCF8FFF8FCF8FFF8FCF8FFA2
:10526000F8FCF8FFF8FCF8FFF8FCF8FFF8FCF8FF92
:10527000F8FCF8FFF8FCF8FFF8FCF8FFF8FCF8FF82
:10528000E0CC78FFC89C00FFC89C08FFC89C00FFCA
:10529000C09C08FFC09C08FFC09C08FFC09C00FF8A
:1052A000C09C08FFC09C08FFC8A000FFC09C08FF6E
:1052B000C89C08FFC8A000FFC89C08FFC8A008FF42
:1052C000F8F4E0FFF8FCF8FFF8FCF8FFF8FCF8FF52
:1052D000F8FCF8FFF8FCF8FFF8FCF8FFF8FCF8FF22
:1052E000F8FCF8FFF8FCF8FFF8FCF8FFF8FCF8FF12
:1052F000F8FCF8FFF8FCF8FFF8FCF8FFF8FCF8FF02
:10530000F8FCF8FFF8FCF8FFF8FCF8FFF8FCF8FFF1
:10531000F8F8F0FFC8A410FFC09C08FFC09C08FF6D
:10532000C09C00FFC09C08FFC09C00FFC09C00FF09
:10533000C09C08FFC09C00FFC89C08FFC09C00FFE9
:10534000C09C08FFC89C00FFC09C08FFC09C08FFD1
:10535000C09C00FFC89C00FFC89C08FFC09C00FFC9
:10536000C8A008FFC8A000FFC89C08FFC89C00FF99
:10537000C89C00FFC89C08FFC0A000FFC8A008FF91
:10538000C8A008FFC09C00FFC89C08FFC09C00FF8D
:10539000C09C08FFC89C08FFC09C00FFC09C08FF81
:1053A000C89C08FFC89C00FFC09C087DC89C008268
:1053B000C8A008FFC8A000FFC8A008FFC8A000FF41
:1053C000C09C00FFC89C08FFC89C08FFC09C00FF51
:1053D000C09C08FFC89C08FFC89C00FFC8A000FF35
:1053E000C8A008FFC8A000FFC8A000FFC8A008FF11
:1053F000C09C08FFC09C00FFC8A008FFC8A008FF11
:10540000C8A000FFC09C08FFC09C00FFC09C08FF14
:10541000C09C00FFC09C08FFC89C08FFC09C00FF08
:10542000C89C00FFC09C08FFC09C00FFC09C00FF00
:10543000C89C00FFC09C08FFC89C08FFC09C00FFE0
:10544000C09C08FFD0AC38FFF8FCF8FFF8FCF8FF70
:10545000F8FCF8FFF8FCF8FFF8FCF8FFF8FCF8FFA0
:10546000F8FCF8FFF8FCF8FFF8FCF8FFF8FCF8FF90
:10547000F8FCF8FFF8FCF8FFF8FCF8FFF8F4E8FF98
:10548000C8A410FFC8A000FFC09C08FFC89C00FF74
:10549000C8A000FFC09C08FFC09C00FFC09C08FF84
:1054A000C09C00FFC09C00FFC09C08FFC89C00FF80
:1054B000C09C00FFC09C08FFC09C08FFE0CC78FFA8
:1054C000F8FCF8FFF8FCF8FFF8FCF8FFF8FCF8FF30
:1054D000F8FCF8FFF8FCF8FFF8FCF8FFF8FCF8FF20
:1054E000F8FCF8FFF8FCF8FFF8FCF8FFF8FCF8FF10
:1054F000F8FCF8FFF8FCF8FFF8FCF8FFF8FCF8FF00
:10550000F8FCF8FFF8FCF8FFF8FCF8FFF8FCF8FFEF
:10551000E0C878FFC09C00FFC09C00FFC89C08FF4B
:10552000C89C00FFC89C08FFC89C08FFC09C00FFE7
:10553000C09C08FFC09C00FFC89C08FFC09C08FFDF
:10554000C09C00FFC09C00FFC09C08FFC89C00FFDF
:10555000C09C08FFC09C08FFC09C00FFC8A008FFBB
:10556000C8A000FFC8A008FFC8A000FFC09C08FF9B
:10557000C09C00FFC09C08FFC09C00FFC8A000FFAB
:10558000C09C08FFC09C00FFC89C00FFC09C08FF97
:10559000C09C00FFC89C00FFC09C08FFC09C00FF8F
:1055A000C89C00FFC09C08FFC09C007DC8A0008272
:1055B000C8A008FFC8A008FFC8A000FFC09C08FF43
:1055C000C09C08FFC09C00FFC09C00FFC09C08FF5F
:1055D000C89C00FFC8A008FFC8A008FFC8A000FF23
:1055E000C8A008FFC8A000FFC8A000FFC8A008FF0F
:1055F000C89C00FFC09C00FFC09C08FFC8A000FF23
:10560000C8A008FFC09C00FFC89C08FFC89C00FF02
:10561000C09C00FFC09C08FFC09C00FFC89C08FF06
:10562000C8A008FFC89C00FFC8A000FFC09C08FFDE
:10563000C09C00FFC89C00FFC09C00FFC09C08FFEE
:10564000C09C00FFC09C08FFE8DCA8FFF8FCF8FF46
:10565000F8FCF8FFF8FCF8FFF8FCF8FFF8FCF8FF9E
:10566000F8FCF8FFF8FCF8FFF8FCF8FFF8FCF8FF8E
:10567000F8FCF8FFF8FCF8FFF8FCF8FFE0C468FF5E
:10568000C8A000FFC8A008FFC09C08FFC09C00FF86
:10569000C09C00FFC89C08FFC89C00FFC89C08FF76
:1056A000C09C00FFC09C08FFC09C08FFC09C00FF7E
:1056B000C09C00FFC09C08FFC8A410FFF8F8E8FFDA
:1056C000F8FCF8FFF8FCF8FFF8FCF8FFF8FCF8FF2E
:1056D000F8FCF8FFF8FCF8FFF8FCF8FFF8FCF8FF1E
:1056E000F8FCF8FFF8FCF8FFF8FCF8FFF8FCF8FF0E
:1056F000F8FCF8FFF8FCF8FFF8FCF8FFF8FCF8FFFE
:10570000F8FCF8FFF8FCF8FFF8FCF8FFF8F4E0FF0D
:10571000C8A010FFC09C00FFC09C08FFC89C00FFF1
:10572000C09C00FFC09C08FFC09C00FFC09C08FFFD
:10573000C09C00FFC89C08FFC09C00FFC09C00FFED
:10574000C09C08FFC09C08FFC89C00FFC09C00FFD5
:10575000C09C08FFC09C00FFC09C08FFC89C00FFC5
:10576000C8A008FFC8A000FFC09C08FFC09C08FF9D
:10577000C09C00FFC89C08FFC09C08FFC09C00FFA5
:10578000C89C08FFC09C08FFC09C00FFC89C08FF85
:10579000C09C00FFC09C08FFC89C08FFC09C00FF85
:1057A000C09C08FFC89C08FFC09C007DC8A0008268
:1057B000C8A008FFC8A000FFC8A000FFC09C08FF49
:1057C000C89C00FFC89C08FFC09C08FFC09C00FF4D
:1057D000C09C00FFC09C00FFC0A008FFC8A000FF45
:1057E000C8A008FFC8A008FFC0A000FFC09C08FF19
:1057F000C09C08FFC89C00FFC8A000FFC8A008FF0D
:10580000C09C00FFC09C08FFC8A008FFC8A000FF04
:10581000C8A008FFC89C00FFC09C00FFC09C08FFF8
:10582000C09C08FFC8A000FFC8A008FFC8A008FFD0
:10583000C09C08FFC09C00FFC09C08FFC89C08FFDC
:10584000C09C00FFC09C00FFC8A828FFF8FCF8FF20
:10585000F8FCF8FFF8FCF8FFF8FCF8FFF8FCF8FF9C
:10586000F8FCF8FFF8FCF8FFF8FCF8FFF8FCF8FF8C
:10587000F8FCF8FFF8FCF8FFF8F0D8FFC8A008FF24
:10588000C8A000FFC09C08FFC09C00FFC09C08FF90
:10589000C09C08FFC09C00FFC89C08FFC89C00FF7C
:1058A000C89C08FFC89C00FFC09C08FFC09C08FF64
:1058B000C89C00FFC09C08FFE0D088FFF8FCF8FF00
:1058C000F8FCF8FFF8FCF8FFF8FCF8FFF8FCF8FF2C
:1058D000F8FCF8FFF8FCF8FFF8FCF8FFF8FCF8FF1C
:1058E000F8FCF8FFF8FCF8FFF8FCF8FFF8FCF8FF0C
:1058F000F8FCF8FFF8FCF8FFF8FCF8FFF8FCF8FFFC
:10590000F8FCF8FFF8FCF8FFF8FCF8FFD8C068FFD7
:10591000C09C00FFC89C08FFC09C08FFC09C00FF03
:10592000C09C08FFC09C00FFC09C08FFC89C00FFF3
:10593000C89C08FFC09C00FFC09C08FFC89C00FFDB
:10594000C89C08FFC09C00FFC09808FFC09C08FFCF
:10595000C09C00FFC89800FFC09C08FFC09C00FFCF
:10596000C89C00FFC09C08FFC09C00FFC09C00FFBB
:10597000C89C08FFC8A000FFC8A000FFC89C08FF83
:10598000C09C00FFC09C00FFC89C08FFC09C08FF93
:10599000C09C00FFC89C00FFC09C08FFC09C00FF8B
:1059A000C89C08FFC09C00FFC09C087DC89C00826A
:1059B000C8A008FFC8A000FFC8A008FFC09C00FF47
:1059C000C8A000FFC8A008FFC8A008FFC89C00FF2F
:1059D000C09C08FFC09C08FFC89C00FFC09C00FF43
:1059E000C89C08FFC8A000FFC09C08FFC09C00FF27
:1059F000C09C08FFC09C08FFC09C00FFC09C08FF23
:105A0000C09C00FFC89C00FFC8A008FFC8A000FF02
:105A1000C8A008FFC8A008FFC09C00FFC09C00FFF2
:105A2000C09C08FFC8A000FFC8A000FFC8A008FFD6
:105A3000C09C00FFC09C08FFC09C00FFC89C08FFE2
:105A4000C09C00FFC09800FFC09C08FFE8D490FFF6
:105A5000F8FCF8FFF8FCF8FFF8FCF8FFF8FCF8FF9A
:105A6000F8FCF8FFF8FCF8FFF8FCF8FFF8FCF8FF8A
:105A7000F8FCF8FFF8FCF8FFD8C058FFC8A008FFF2
:105A8000C09C08FFC09C00FFC89C00FFC09C08FF92
:105A9000C09C00FFC09808FFC09C00FFC09C08FF8E
:105AA000C09C00FFC89C00FFC89C08FFC09C00FF72
:105AB000C09C00FFC8A420FFF8FCF8FFF8FCF8FF2A
:105AC000F8FCF8FFF8FCF8FFF8FCF8FFF8FCF8FF2A
:105AD000F8FCF8FFF8FCF8FFF8FCF8FFF8FCF8FF1A
